:0E0000000C945E000C948B000C9400000C9489
:10000E0000000C9490000C9400000C9400000C94D2
:10001E0000000C9400000C9400000C9400000C9452
:10002E0000000C9400000C9400000C9400000C9442
:10003E0000000C9400000C9400000C9400000C9432
:10004E0000000C94000000000100773D312072701A
:10005E00730A436C6F636B7769736500773D30206D
:10006E0072707300773D31207270730A436F756E34
:10007E00746572636C6F636B776973652000010042
:10008E0080C00300050054001200600158000800F3
:10009E0072016A001A007A017200080094016A0067
:1000AE0001009C018C0002009D018E000000F8945E
:1000BE00EE27ECBBF1E0FBBFEBBFE5BF8DE0A2E0AE
:1000CE00BB27ED938A95E9F780E094E0A0E6ED93E7
:1000DE000197E9F7E0E9F0E085919591009761F0DD
:1000EE00A591B59105901590BF01F00105900D9267
:1000FE000197E1F7FB01F0CFEFE5EDBFE4E0EEBFD6
:10010E00C0E6D1E00C94A9000E94AF010E94FB0052
:10011E000BC00E94AF01EDE3E4BD5394E4E0E5159E
:10012E0019F40E940E015524E991EFBFF991E9915E
:10013E00B991A9919991899179916991F9901990B3
:10014E00099018954BD07894E1E05E2E4E2EE1E0AA
:10015E000E94BD01A0E6B1E00E94C001E0E00E9455
:10016E00BD01A2E7B1E00E94C001E2E00E94BD0124
:10017E00AAE7B1E00E94C001E0E00E94BD01A4E93F
:10018E00B1E00E94C001E3CFFFCFE0E0EABBEFEFAA
:10019E00E7BBE4BBE0E0E1BBE8BB0895E5E6E3BF07
:1001AE00E0E0E2BFE0E8ECBF0895E0E0E2BDE7E0AA
:1001BE00E5BDEDE3E4BDE0E0E3BD0895E0E4E9BFB5
:1001CE00EBB7E064EBBFE2E0E5BFE0E0E4BFE0E404
:1001DE00EABF0895A0E10E9484010895D6DFDEDF14
:1001EE00E4DFECDFF7DF08950E94050219B3A2E108
:1001FE001A9FF001E75FFE4FDF01E4E1F0E00E949D
:10020E00F2019F012CBF0E940A0224960895E72D49
:10021E00E295E07FE8BBA0919C01A13039F4770C08
:10022E00E0E1E71511F4E1E07E2E09C0A0919C01FA
:10023E00A23029F47694772011F4E8E07E2E08950A
:10024E00AA93E5B3EF70AE2FE881E07FEA2BE5BB12
:10025E008DE08A95F1F7AA9A8DE08A95F1F7AA9822
:10026E008DE08A95F1F772C0AA93A881E9DFE88143
:10027E00E295E883A881E4DF85E88A95F1F766C008
:10028E00AA93E881F0E0E356FE4FE081A981AE0F1C
:10029E00EBDF6980988022960895A2E06FD0ACE0E3
:1002AE00E3DFA1E06BD0E0E09E2E6E2E0895AA93C0
:1002BE00A881AA3011F0681448F0E0E0EA93939414
:1002CE00A92DDEDFA881AA3009F440C06394A89A54
:1002DE00A881CADFA8983AC0BA93AA931A93A981A3
:1002EE00BA81ED91A983BA831E2FE03019F0A12FA8
:1002FE00DEDFF5CF188123960895AA93E4B3E06F5D
:10030E00E4BBA29AA09AA19AAA98A898A9988880C4
:10031E00E881E058E0939F01E881E054E093A0016A
:10032E00A4E1B0E00E94D1012ED02DD02CD0A0E2BD
:10033E0087DF88EC90E00197F1F7A8E295DFA4E063
:10034E0093DFA5E891DFA6E08FDFA7DF2196089562
:10035E000A921A92FA926A937A938A939A93AA932A
:10036E00BA93EA93FA93EFB7EA930895E0939C0158
:10037E0094CFB2DFA8EBBBE00C94D10175DFA3E004
:10038E00B0E00C94D101A0E35BDF88EC90E0019724
:10039E00F1F70895109639F080ED97E00197F1F797
:1003AE00A8951197C9F70895F195E195F040089534
:1003BE000024112490E1AA0FBB1F001C111C0E1A61
:1003CE001F0A18F40E0E1F1E01C0A1609A9599F710
:1003DE00FD01D001089504D0EBDF0EF4E5DF0895A2
:1003EE00E894F7FF02C0E0DF6894B7FF06C0A0955F
:1003FE00B095119600F8039400FA08953A932A9353
:10040E001A930A9308953B812A81198108810895D0
:00000001FF
