:080000000C942F000C94000089
:100008000C9400000C9400000C9400000C94000068
:100018000C9400000C9400000C9400000C94000058
:100028000C9400000C9400000C9400000C94000048
:100038000C9400000C9400000C9400000C94000038
:100048000C9400000C9400000C9400003F065B4FD9
:10005800666D7D077F6FF894EE27ECBBF1E0FBBF80
:10006800EBBFE5BF8DE0A2E0BB27ED938A95E9F7EA
:1000780080E094E0A0E6ED930197E9F7EFE5EDBFA6
:10008800E4E0EEBFC0E6D1E00C946C002A978AE069
:10009800A0E0B0E0E4E5F0E00E9485001A9310E0EB
:1000A800909891989298939819E0103070F0E12FF9
:1000B800F0E0DE011196AE0FBF1FEC91E5BBACED91
:1000C800B5E00E947B001150F0CF18812B9608955F
:1000D800E0E0EABBEBBBE7BBE8BBEFEFE4BBE0E08B
:1000E800E5BBEFE0E1BBE0E0E2BBD0DFFFCF10967D
:1000F80039F080ED97E00197F1F7A8951197C9F7C6
:100108000895AC0FBD1F05900D928A95E1F70895EB
:00000001FF
