:060000000C9470000C944A
:1000060000000C9400000C9400000C9400000C946A
:1000160000000C9400000C9400000C9400000C945A
:1000260000000C9400000C9414010C9400000C9435
:1000360046010C9400000C9400000C9400000C94F3
:1000460000000C9400000C9400000C940000102793
:10005600E80364000A00010000100001100001001E
:1000660000000000000000000D206C656E677468DB
:10007600206F66206672616D65206E6F7420636FF7
:100086007272656374200D000D206672616D6520C5
:100096006D757374206265203520696E74656765B9
:1000A60072200D000D206672616D652069732063F4
:1000B6006F7272656374200D0025632563256325C1
:1000C6006325630080C0010002006600060004008C
:1000D600680002007001CA000000F894EE27ECBB2D
:1000E600F1E0FBBFEBBFE5BF8DE0A2E0BB27ED93E0
:1000F6008A95E9F780E094E0A0E6ED930197E9F7A9
:10010600ECECF0E085919591009761F0A591B591A1
:1001160005901590BF01F00105900D920197E1F74A
:10012600FB01F0CFEFE5EDBFE4E0EEBFC0E6D1E0C6
:100136000C94780168971A930A9300E0193269F0D3
:100146008FD01E2F073038F4E02FF0E0DE01129634
:10015600EA0FFB1F10830F5FF1CF073018F4EEE6AE
:10016600F0E054C0083008F04FC0AA81A83209F563
:10017600AB81AA3310F4A03308F41BC0AC81AA33B8
:1001860010F4A03308F415C0AD81AA3310F4A033DF
:1001960008F40FC0AE81AA3310F4A03308F409C0E6
:1001A600AF81AA3310F4A03308F403C0A885A9329E
:1001B60009F02AC0EAEAF0E0FA93EA9380E00E94A6
:1001C60039042296FE013996FA93EA93EFEBF0E0B2
:1001D600FA93EA93EF810E947104EC850E94710400
:1001E600E9890E947104EE890E947104EB8D0E94D8
:1001F600710484E10E940B0468960E943302DE01BA
:1002060019960E94540208C0EEE8F0E0FA93EA93C9
:1002160080E00E943904229610E0198108816A96CE
:100226000895EA93FA93EFB7EA931A930A931BB1E8
:100236000CB1E12FEC7189F4E52D5394F0E0E05A0E
:10024600FE4F0083E8E0E51509F455247394E8E0D1
:10025600E71519F47724689420F80991199125C0B7
:100266001A937720F1F3E42D4394F0E0E05AFE4F21
:100276001081E8E0E41509F44424F8947A9478941B
:10028600E12F19910895EA93FA93EFB7EA9388203C
:1002960061F08A94E92D9394F0E0E859FE4FE081ED
:1002A600ECB9E8E0E91509F49924E991EFBFF99171
:1002B600E9911895AA93E8E0E815E9F3F8948820FF
:1002C60011F45D990DC0E62D6394F0E0E859FE4FF8
:1002D600A881A083E8E0E61509F46624839402C0A9
:1002E600E881ECB978940C949002E0E0EABBEBBBB1
:1002F600E7BBE8BBEFEFE4BBE0E0E5BBE1BBE2BB9D
:10030600A0E10E9464027894E0E8F5E2FA93EA93A9
:10031600EBE0F0E0FA93EA93ABE0B0E003D00ADF5B
:10032600FECFFFCFBA93AA932897E0E0E883E9834C
:10033600EA83EB83EC83ED83EE83EF830E945D0516
:1003460020E030E040E050E0A889B989EAE0F0E03A
:100356000E94F204EC87FD87A889B989EAE0F0E0FB
:100366000E942105EA87FB87AE85BF85EAE0F0E0BB
:100376000E94F204E887F987AE85BF85EAE0F0E0DF
:100386000E942105EE83FF83EA89FB890E94DA0435
:10039600A0E2B1EA87E090E00E941C0531978F0148
:1003A6000436E0E01E0724F4E0E0E0BD09B90EC023
:1003B600D801E4E6F0E00E94F2049F01D801E4E6E9
:1003C600F0E00E942105AF0120BD49B9E0E0EBB99C
:1003D600EC85E795E0E0E795AE2FE885E295E07FCE
:1003E600EE0FEE0FEA2BAE2FEA85E295E07FEA2BC1
:1003F600AE2FEE81EE0FEE0FEE0FEA2BEAB9E6E82E
:10040600E0BD0C940704AA93E5B3EF70AE2FE88124
:10041600E07FEA2BE5BB8DE08A95F1F7AA9A8DE09D
:100426008A95F1F7AA988DE08A95F1F776C0AA9396
:10043600A881E9DFE881E295E883A881E4DF85E821
:100446008A95F1F76AC0AA93E881F0E0E059FE4F79
:10045600E081A981AE0FEBDFB980A88022960895CE
:10046600A2E00E947704ACE0E2DFA1E00E947704FC
:10047600E0E0AE2EBE2E0895AA93A881AA3011F010
:10048600BD1448F0E0E0EA93A394AA2DDCDFA8812E
:10049600AA3009F442C0B394A89AA881C8DFA898E4
:1004A6003CC0BA93AA931A93A981BA81ED91A98304
:1004B600BA831E2FE03019F0A12FDEDFF5CF1881A9
:1004C60037C0AA93E4B3E06FE4BBA29AA09AA19ABC
:1004D600AA98A898A998D880E881E058E093720174
:1004E600E881E054E0937301A4E1B0E00E94C00407
:1004F6000E947D040E947D040E947D04A0E283DFA9
:1005060088EC90E00197F1F7A8E291DFA4E08FDF95
:10051600A5E88DDFA6E08BDFA3DF21960895BA93C9
:10052600AA93AA810E945D01A881B9810E948504CF
:1005360023960895BA93AA931A930A93AA81BB8124
:1005460012960E945005309729F1AA81BB81149614
:100556000E9450058F01309761F00230E0E01E07DF
:1005660080F0F80131978F01AA81BB811496ED9333
:10057600FC93AA81BB8112960E9485043197AC81B7
:10058600A083AA81BB810E945005FF2312F00E941E
:10059600850406C0AA81BB81EFEFFFEFED93FC93C4
:1005A6001981088125960895BA93AA9326970E94E1
:1005B6005D0510E0AC85BD85E0E0F0E0ED93FC93D1
:1005C600EA89FB893196EA8BFB8B3197E4912E2FD2
:1005D600E03009F415C1E12FE03039F4253211F489
:1005E60011E002C00E948B040AC1E130A9F4253251
:1005F60019F40E948B0402C112E040E000E02D32A3
:1006060011F401E0FCC02B3211F44BE2F8C02032A9
:1006160011F440E2F4C002C0E23039F450E013E0D5
:10062600203311F40068EBC003C0E33009F0E7C0E3
:10063600203310F02A3308F007C0AAE05A9F502D45
:10064600E22FE0535E0FDBC0E22FE33649F40E944F
:100656009204E889F989A481AA930E949804CEC0DD
:10066600E33741F40E9492040E949E040E945804BB
:100676001E2F0AC0E03761F40E9492040E949E0475
:100686000E9464041E2F086002600F7730E034C0B9
:10069600E43611F0E93611F4046002C0E53731F4AE
:1006A600E4E5F0E0EE83FF8315E00CC0E83511F4D5
:1006B600086003C0E83709F0A1C0EEE5F0E0EE837C
:1006C600FF8314E002FF14C00E9492040E94A80453
:1006D600AB85AA233AF4EA85FB850E94CE04EA8715
:1006E600FB874DE2403011F01F5F01C00B7F04C055
:1006F6000E9492040E94A80400FD11C0151778F408
:1007060007FF08C002FF04C00B7F242F115001C051
:1007160020E301C020E20E948B045150EFCF312F1D
:1007260001FF17C03030A1F003FF06C0EE81FF8144
:100736002591EE83FF8305C0AE81BF812D91AE83E7
:10074600BF830E948B04503009F051503150EACFDC
:100756004BC020E3EE81FF810E945405E887F987AC
:10076600EE81FF813296EE83FF83E885F985AA85BF
:10077600BB85AE17BF0750F02F5FA885B985EA8500
:10078600FB85EA1BFB0BEA87FB87EFCF2A3328F0B2
:1007960003FF02C0295F01C0295D04FD1AC0213391
:1007A60020F4A885B985119709F409C0531710F0EC
:1007B60000FF01C013C020E207FF0BC020E3006169
:1007C60002FF07C00B7F4A930E949804503009F03D
:1007D60051500E948B04503009F051503150A88579
:1007E600B985129708F0B5CF00FF08C0503031F038
:1007F6005150E0E2EA930E949804F8CF10E0E0CE70
:10080600AC85BD850E9450050E94640564960895D6
:10081600FF92F82E26970E945F050E94B00430973B
:1008260019F4EFEFFFEF1DC0DE0116960E94CA0411
:100836008D010E94B004EE83FF83E0E0E887E9873C
:10084600DE011A960E94B704EDE9F2E0FA93EA9304
:10085600DE011A96A9DE9F01AE81BF81E0E0EC932E
:10086600F9010E9466052A96FF900895FF92F82ED8
:1008760026971A930A93DE0114960E94CA048D01E4
:10088600E0E0EC83ED83EE83EF83DE0118960E94B1
:10089600B704E2E9F2E0FA93EA93DE01189684DE01
:1008A600198108812896FF900895BA93AA93A99171
:1008B600B991EE27FF276D91662311F03196FBCF94
:1008C6000895BA93AA93AA27BB27E991F9910590AF
:1008D600002011F01196FBCFFD010895FF27662732
:1008E60077270E94580508950E941A02A3E0B0E0F7
:1008F6000C94C004A0E30E94060288EC90E00197E5
:10090600F1F70895ED91FD913196FE93EE930895DA
:100916002A93AD85BE85EF85F88909950895E889FE
:10092600F9893497E88BF98B0895AD85BE85EF85F7
:10093600F88909950895A889B98914960E945005E1
:10094600EE83FF83AE81BF810895A889B989149685
:100956000E945005EA87FB870895DE011C960E94D7
:10096600CA040E94500508950E94CA040E945005B8
:10097600FA93EA931A930A930895109639F080ED44
:1009860097E00197F1F7A8951197C9F70895002404
:10099600AF0DB01D0895F195E195F0400895F095DD
:1009A60060957095E195FF4F6F4F7F4F08956F2FBC
:1009B600660F660B762F08950024112490E1AA0F86
:1009C600BB1F001C111C0E1A1F0A18F40E0E1F1E48
:1009D60001C0A1609A9599F7FD01D00108953CD018
:1009E600EBDF0EF4D8DF08953F934F935F93002417
:1009F60011244427552730E2AA0FBB1F881F991FD1
:100A0600001C111C441F551F0E1A1F0A460B570BBC
:100A160028F40E0E1F1E461F571F01C0A1603A95EF
:100A260059F7FD01BC01D001CA015F914F913F9179
:100A3600089520D0D9DF0EF4B2DF0895E894B7FF09
:100A460004C0A095B09511966894F7FDA4DFB4DFB5
:100A5600FD010EF4A0DF0895E894F7FF02C09BDFC6
:100A66006894B7FF06C0A095B095119600F8039458
:100A760000FA0895E89477FF02C091DF689497FF23
:100A86000BC00024A095B095809590951196801D79
:100A9600901D00F8039400FA0895ED91FC911197CA
:100AA60008950590F491E02D08957A936A93FA9348
:100AB600EA9308955A934A933A932A931A930A9378
:100AC60008955D814C813B812A81198108810895B1
:00000001FF
