:0A0000000C942A000C9400000C94EC
:10000A0000000C9400000C9400000C9400000C9466
:10001A0000000C9400000C9400000C9400000C9456
:10002A0000000C9400000C9400000C9400000C9446
:10003A0000000C9400000C9400000C9400000C9436
:10004A0000000C9400000C940000F894EE27ECBB1E
:10005A00F1E0FBBFEBBFE5BF8DE0A2E0BB27ED936C
:10006A008A95E9F780E094E0A0E6ED930197E9F735
:10007A00EFE5EDBFE4E0EEBFC0E6D1E00C94770017
:10008A00BA93AA930E94BB00EE81FF8131978F0138
:10009A00AE81BF81E8E0F0E0EA1BFB0BAC81BD81D9
:1000AA000E94A8009F01EFEFE7BB0830E0E01E07BF
:1000BA00ACF418B2E02FA1E00E948D00E129E8BB60
:1000CA00D9010E947F0018B2E02FA1E00E948D00A2
:1000DA00E095E121E8BB0F5F1F4FE7CF0E94C00008
:1000EA0028960895E3E0F0E0FA93EA93A8EBBBE0E0
:1000FA00C7DFFFCF109639F080ED97E00197F1F74F
:10010A00A8951197C9F70895F195E195F0400895DA
:10011A00EE230E2EEA2F19F0EE0F0A94E9F708954E
:10012A000024112490E1AA0FBB1F001C111C0E1AF7
:10013A001F0A18F40E0E1F1E01C0A1609A9599F7A6
:10014A00FD01D001089504D0EBDF0EF4DDDF089540
:10015A00E894F7FF02C0D8DF6894B7FF06C0A095FD
:10016A00B095119600F8039400FA08953A932A93E9
:10017A001A930A9308953B812A8119810881089567
:00000001FF
