:060000000C9434000C9486
:1000060000000C9400000C9400000C9400000C946A
:1000160000000C9400000C9400000C9400000C945A
:1000260000000C9400000C9400000C9400000C944A
:1000360000000C9400000C9400000C9400000C943A
:1000460000000C9400000C9400000C940000BF8685
:10005600DBCFE6EDFD87FFEF3F065B4F666D7D0765
:100066007F6FF894EE27ECBBF1E0FBBFEBBFE5BF7B
:100076008DE0A2E0BB27ED938A95E9F780E094E056
:10008600A0E6ED930197E9F7EFE5EDBFE4E0EEBFFB
:10009600C0E6D1E00C94E300A49784E1A0E1B0E0CF
:1000A600E4E5F0E00E947C010E946E0100E010E0B1
:1000B60020E030E040E050E009B31127F801AAE063
:1000C600B0E00E9432018F0111230AF475C08799AE
:1000D60004C0D80185D0041B150B869908C0D80129
:1000E600EAE0F0E083D0FA01AAE0B0E083D0859997
:1000F60008C0D801E4E6F0E079D0FA01A4E6B0E061
:1001060079D0849908C0D801E8EEF3E06FD0FA01FF
:10011600A8EEB3E06FD0D801EAE0F0E00E94520109
:10012600EC8BFD8BD801EAE0F0E00E944A01EC87F7
:10013600FD87AC85BD8564D0EA8BFB8BAC85BD8520
:1001460064D0EA87FB87AA85BB855AD0E88BF98BF2
:10015600AA85BB855AD0E887F987A885B98550D086
:10016600EE87FF87A885B98550D0EE83FF83EE859D
:10017600FF8550D0EEE055D0E889F9894BD0EDE007
:1001860050D0EA89FB89DE015696AE0FBF1FEC916F
:10019600E5BBEBE046D0EC89FD893CD0E7E041D0F9
:1001A6002F5F3F4FE4E1F0E0E217F30721F402503E
:1001B600104020E030E088CF0E947501AA9608958D
:1001C600E0E0EABBEBBBE7BBE8BBEFEFE4BBE0E09C
:1001D600E5BBEFE0E1BBE0E0E2BB5EDFFECFFFCFD9
:1001E600EAE0F0E00E945201AF0108950E944A0140
:1001F600DF01F6CF0E943201AF01041B150B0895F3
:10020600EAE0F0E00E944F010895EAE0F0E00E9483
:1002160037010895DE019096AE0FBF1FEC91E5BB46
:100226000895E2BBA5E0B0E00E941C01EFE0E2BB4E
:100236000895109639F080ED97E00197F1F7A895AB
:100246001197C9F70895F195E195F0400895FA9F41
:10025600F02DEB9FF00DEA9FE02DF10D08952DD0C6
:10026600F6DF0EF4F0DF08950024112490E1AA0FC2
:10027600BB1F001C111C0E1A1F0A18F40E0E1F1E9F
:1002860001C0A1609A9599F7FD01D001089515D096
:10029600EBDF0EF4D8DF0895E7DFFD010895E8945B
:1002A600B7FF04C0A095B09511966894F7FDCBDF13
:1002B600DBDFFD010EF4C7DF0895E894F7FF02C007
:1002C600C2DF6894B7FF06C0A095B095119600F8F6
:1002D600039400FA08955A934A933A932A931A93E9
:1002E6000A9308955D814C813B812A811981088199
:1002F6000895AC0FBD1F05900D928A95E1F70895FC
:00000001FF
