:0C0000000C9437000C9400000C940000DD
:10000C000C9400000C9400000C9400000C94000064
:10001C000C9400000C9400000C9400000C94000054
:10002C000C9400000C9400000C9400000C94000044
:10003C000C9400000C9400000C9400000C94000034
:10004C000C9400000C9400001027E80364000A00D4
:10005C00010000100001100001000D282573290D6E
:10006C000000F894EE27ECBBF1E0FBBFEBBFE5BF63
:10007C008DE0A2E0BB27ED938A95E9F780E094E050
:10008C00A0E6ED930197E9F7EFE5EDBFE4E0EEBFF5
:10009C00C0E6D1E00C945200E0E0EABBEBBBE7BB5E
:1000AC00E8BBE4BBE5BBE1BBE2BBE0E8F5E2FA93FD
:1000BC00EA93E1E0F0E0FA93EA93A1E0B0E018D023
:1000CC00E0E6F1E0FA93EA93ADE0B0E00E94FA00CA
:1000DC00E6E6F0E0FA93EA93E0E6F1E066277727AC
:1000EC000E945B0384E00E946A022696E9CFFFCF50
:1000FC00BA93AA932897E0E0E883E983EA83EB8339
:10010C00EC83ED83EE83EF830E94600320E030E00C
:10011C0040E050E0A889B989EAE0F0E00E94F502DD
:10012C00EC87FD87A889B989EAE0F0E00E942403F6
:10013C00EA87FB87AE85BF85EAE0F0E00E94F50216
:10014C00E887F987AE85BF85EAE0F0E00E942403DA
:10015C00EE83FF83EA89FB890E94DD02A0E2B1EA0B
:10016C0087E090E00E941F0331978F010436E0E096
:10017C001E0724F4E0E0E0BD09B90EC0D801E4E6A6
:10018C00F0E00E94F5029F01D801E4E6F0E00E9445
:10019C002403AF0120BD49B9E0E0EBB9EC85E7954C
:1001AC00E0E0E795AE2FE885E295E07FEE0FEE0FED
:1001BC00EA2BAE2FEA85E295E07FEA2BAE2FEE819B
:1001CC00EE0FEE0FEE0FEA2BEAB9E6E8E0BD0C9469
:1001DC0066025F9BFECFECB10895AA935D9BFECFA8
:1001EC00E881ECB921960895BA93AA930E94600312
:1001FC000E811F8128853985002E012AD9F0E9DF6F
:10020C005E2F583051F4AE81BF810A171B0720F4C2
:10021C00215030400F5F1F4FF2CF5A3059F03F93AF
:10022C002F932F5F3F4FE52FAF91BF91EC93015070
:10023C001040E2CFD901E0E0EC93E885F9850E940B
:10024C0067032A960895BA93AA93AA81C6DFA88158
:10025C00B981ED91FD913196FE93EE93239608951D
:10026C00BA93AA9326970E94600310E0AC85BD85D3
:10027C00E0E0F0E0ED93FC93EA89FB893196EA8BA0
:10028C00FB8B3197E4912E2FE03009F415C1E12F4F
:10029C00E03039F4253211F411E002C00E94A802BA
:1002AC000AC1E130A9F4253219F40E94A80202C156
:1002BC0012E040E000E02D3211F401E0FCC02B32E2
:1002CC0011F44BE2F8C0203211F440E2F4C002C049
:1002DC00E23039F450E013E0203311F40068EBC045
:1002EC0003C0E33009F0E7C0203310F02A3308F0E4
:1002FC0007C0AAE05A9F502DE22FE0535E0FDBC0DF
:10030C00E22FE33649F40E94AF02E889F989A4810F
:10031C00AA930E94B502CEC0E33741F40E94AF020B
:10032C000E94BB020E948F021E2F0AC0E03761F4AC
:10033C000E94AF020E94BB020E949B021E2F08600B
:10034C0002600F7730E034C0E43611F0E93611F476
:10035C00046002C0E53731F4E4E5F0E0EE83FF839E
:10036C0015E00CC0E83511F4086003C0E83709F05B
:10037C00A1C0EEE5F0E0EE83FF8314E002FF14C0B1
:10038C000E94AF020E94C502AB85AA233AF4EA850B
:10039C00FB850E94D102EA87FB874DE2403011F0C9
:1003AC001F5F01C00B7F04C00E94AF020E94C502F8
:1003BC0000FD11C0151778F407FF08C002FF04C038
:1003CC000B7F242F115001C020E301C020E20E94BA
:1003DC00A8025150EFCF312F01FF17C03030A1F0E0
:1003EC0003FF06C0EE81FF812591EE83FF8305C0DC
:1003FC00AE81BF812D91AE83BF830E94A802503085
:10040C0009F051503150EACF4BC020E3EE81FF810F
:10041C000E945703E887F987EE81FF813296EE83BD
:10042C00FF83E885F985AA85BB85AE17BF0750F019
:10043C002F5FA885B985EA85FB85EA1BFB0BEA874C
:10044C00FB87EFCF2A3328F003FF02C0295F01C0DE
:10045C00295D04FD1AC0213320F4A885B9851197B4
:10046C0009F409C0531710F000FF01C013C020E2BB
:10047C0007FF0BC020E3006102FF07C00B7F4A930C
:10048C000E94B502503009F051500E94A802503021
:10049C0009F051503150A885B985129708F0B5CFA5
:1004AC0000FF08C0503031F05150E0E2EA930E9456
:1004BC00B502F8CF10E0E0CEAC85BD850E945303A9
:1004CC000E94670364960895FF92F82E26971A935C
:1004DC000A93DE0114960E94CD028D01E0E0EC83BC
:1004EC00ED83EE83EF83DE0118960E94CD020E940D
:1004FC005303FA93EA931A930A93E9E2F1E0FA931D
:10050C00EA93DE011896ACDE198108812896FF90DB
:10051C000895BA93AA93A991B991EE27FF276D91EB
:10052C00662311F03196FBCF0895BA93AA93AA27AC
:10053C00BB27E991F9910590002011F01196FBCFA2
:10054C00FD0108952A93AD85BE85EF85F88909953F
:10055C000895E889F9893497E88BF98B0895AD856E
:10056C00BE85EF85F88909950895A889B9891496EF
:10057C000E945303EE83FF83AE81BF810895A88947
:10058C00B98914960E945303EA87FB8708950024C7
:10059C00AF0DB01D0895F195E195F0400895F095DB
:1005AC0060957095E195FF4F6F4F7F4F08956F2FBA
:1005BC00660F660B762F08950024112490E1AA0F84
:1005CC00BB1F001C111C0E1A1F0A18F40E0E1F1E46
:1005DC0001C0A1609A9599F7FD01D00108953CD016
:1005EC00EBDF0EF4D8DF08953F934F935F93002415
:1005FC0011244427552730E2AA0FBB1F881F991FCF
:10060C00001C111C441F551F0E1A1F0A460B570BBA
:10061C0028F40E0E1F1E461F571F01C0A1603A95ED
:10062C0059F7FD01BC01D001CA015F914F913F9177
:10063C00089520D0D9DF0EF4B2DF0895E894B7FF07
:10064C0004C0A095B09511966894F7FDA4DFB4DFB3
:10065C00FD010EF4A0DF0895E894F7FF02C09BDFC4
:10066C006894B7FF06C0A095B095119600F8039456
:10067C0000FA0895E89477FF02C091DF689497FF21
:10068C000BC00024A095B095809590951196801D77
:10069C00901D00F8039400FA0895ED91FC911197C8
:1006AC0008950590F491E02D08957A936A93FA9346
:1006BC00EA9308955A934A933A932A931A930A9376
:1006CC0008955D814C813B812A81198108810895AF
:00000001FF
