:080000000C9452000C94000066
:100008000C9400000C9400000C9400000C94000068
:100018000C9400000C9400000C9400000C94000058
:100028000C9400000C9400000C9400000C94000048
:100038000C9400000C9400000C9400000C94000038
:100048000C9400000C9400000C9400001027E803A6
:1000580064000A00010000100001100001003F06C2
:100068005B4F666D7D077F6FBF86DBCFE6EDFD8753
:10007800FFEF3F065B4F666D7D077F6F4F757420FE
:100088006F662072616E6765006F7574206F6620F9
:1000980072616E6765004572726F7200F894EE27A0
:1000A800ECBBF1E0FBBFEBBFE5BF8DE0A2E0BB27F7
:1000B800ED938A95E9F780E094E0A0E6ED93019747
:1000C800E9F7EFE5EDBFE4E0EEBFC0E6D1E00C9460
:1000D8006D00E4E0F0E0FA93EA93E2E0EA93A4EF3B
:1000E800B1E016D0E3E0F0E0FA93EA93A8EBBBE0C6
:1000F8007DD0E1E0EA93A2E0A6D0E0E0EA93A1E0B7
:10010800F5D0AAE9B9E989E99EE382D1E2CFFFCF28
:10011800BA93AA931A930A9300E010E0A4EFB1E00F
:100128000E948804EC810E94200499F4EFEFEABB56
:1001380000E010E00E9425045CF4EFEFEBBB0E94A6
:100148002A04E0E0EBBB0E942A040F5F1F4FF2CFA6
:1001580049C0E230A0E0FA0799F4EFEFE7BB00E00E
:1001680010E00E9425045CF4EFEFE8BB0E942A042B
:10017800E0E0E8BB0E942A040F5F1F4FF2CF32C0B5
:10018800E330A0E0FA0799F4EFEFE4BB00E010E0F9
:100198000E9425045CF4EFEFE5BB0E942A04E0E02E
:1001A800E5BB0E942A040F5F1F4FF2CF1BC0E4304B
:1001B800A0E0FA0799F4EFEFE1BB00E010E00E943D
:1001C80025045CF4EFEFE2BB0E942A04E0E0E2BB06
:1001D8000E942A040F5F1F4FF2CF04C0E4E8F0E04A
:1001E8000E942E041981088127960895BA93AA932C
:1001F8000E94C105EE81FF8131978F01AE81BF81D9
:10020800E8E0F0E0EA1BFB0BAC81BD810E948E05A3
:100218009F01EFEFE7BB0830E0E01E0784F418B257
:10022800E02F0E943504E8BBD9010E94880418B267
:10023800E02F0E943A04E8BB0F5F1F4FECCF0E94EB
:10024800C80528960895AA931A930A93EB810E94E9
:10025800200429F4E0E0EABB09B311271FC0E2300B
:10026800A0E0FA0729F4E0E0E7BB06B3112716C0BF
:10027800E330A0E0FA0729F4E0E0E4BB03B3112778
:100288000DC0E430A0E0FA0729F4E0E0E1BB00B3D8
:10029800112704C0E1E9F0E00E942E04EA810E94DF
:1002A800200421F4EFEFEABB0BBB1CC0E230A0E056
:1002B800FA0721F4EFEFE7BB08BB14C0E330A0E076
:1002C800FA0721F4EFEFE4BB05BB0CC0E430A0E073
:1002D800FA0721F4EFEFE1BB02BB04C0E1E9F0E06B
:1002E8000E942E041981088124960895AA932A97BA
:1002F8008AE0A0E0B0E0E6E6F0E00E94CD050E94CA
:10030800C10500E010E0EFEFE4BBE1BBEE85F0E0F3
:10031800309739F59098919892989398EF85F0E0F6
:10032800309761F400E010E00A30E0E01E072CF49A
:100338000E9440040F5F1F4FF7CF12C0E130A0E0CA
:10034800FA0751F409E010E011232AF00E94400452
:1003580001501040F9CF04C0EEE9F0E00E942E04ED
:1003680053C0E130A0E0FA0709F04EC0EF85F0E095
:10037800909A919A929A939A20E030E03097F9F403
:1003880000E010E00A30E0E01E07C4F4E4E0F0E02A
:10039800E217F30711F420E030E012B2E22F0E94D6
:1003A8003A04E2BB0E94400412B2E22F0E943504D4
:1003B800E2BB2F5F3F4F0F5F1F4FE4CF25C0E130F7
:1003C800A0E0FA07E9F409E010E01123C2F0E4E044
:1003D800F0E0E217F30711F420E030E012B2E22F68
:1003E8000E943A04E2BB0E94400412B2E22F0E942B
:1003F8003504E2BB2F5F3F4F01501040E6CF04C0E9
:10040800EEE9F0E00E942E040E94C8056096089567
:100418000E94BA05A49784E1A0E1B0E0E0E7F0E02B
:100428000E94CD050E94BF0500E010E020E030E00A
:10043800AAA5BBA58CA59DA5E0E0F0E060E271E46B
:100448000E9408050E94BF04AF0109B31127F801F3
:10045800AAE0B0E00E9476058F01E0E0EABBEFE099
:10046800E1BB11230AF45EC0D801EAE0F0E00E9483
:100478009605EC8BFD8BD801EAE0F0E00E948E0532
:10048800EC87FD87AC85BD850E944A04EA8BFB8B0F
:10049800AC85BD850E944F04EA87FB87AA85BB858A
:1004A8000E944A04E88BF98BAA85BB850E944F04F9
:1004B800E887F987A885B9850E944A04EE87FF87EF
:1004C800A885B9850E944F04EE83FF83EE85FF85DA
:1004D8000E945404EEE00E945B04E889F9890E94B6
:1004E8005404EDE00E945B04EA89FB89DE0156961C
:1004F800AE0FBF1FEC91E5BBEBE00E945B04EC89FB
:10050800FD890E945404E7E00E945B042F5F3F4F7F
:10051800E4E1F0E0E217F30721F4041B150B20E0F7
:1005280030E09FCF0E94C605AE960895AA935D9BC2
:10053800FECFE881ECB921960895BA93AA93AA81CF
:10054800F5DFA881B981ED91FD913196FE93EE9387
:1005580023960895BA93AA9326970E94BF0510E0A0
:10056800AC85BD85E0E0F0E0ED93FC93EA89FB897A
:100578003196EA8BFB8B3197E4912E2FE03009F40A
:1005880015C1E12FE03039F4253211F411E002C031
:100598000E9463040AC1E130A9F4253219F40E94CB
:1005A800630402C112E040E000E02D3211F401E0E2
:1005B800FCC02B3211F44BE2F8C0203211F440E2B7
:1005C800F4C002C0E23039F450E013E0203311F4F3
:1005D8000068EBC003C0E33009F0E7C0203310F037
:1005E8002A3308F007C0AAE05A9F502DE22FE053A3
:1005F8005E0FDBC0E22FE33649F40E946A04E88903
:10060800F989A481AA930E947004CEC0E33741F40B
:100618000E946A040E9476040E9407041E2F0AC0E2
:10062800E03761F40E946A040E9476040E94130471
:100638001E2F086002600F7730E034C0E43611F0F6
:10064800E93611F4046002C0E53731F4E4E5F0E07E
:10065800EE83FF8315E00CC0E83511F4086003C091
:10066800E83709F0A1C0EEE5F0E0EE83FF8314E07F
:1006780002FF14C00E946A040E948004AB85AA236A
:100688003AF4EA85FB850E945A05EA87FB874DE222
:10069800403011F01F5F01C00B7F04C00E946A0444
:1006A8000E94800400FD11C0151778F407FF08C0E8
:1006B80002FF04C00B7F242F115001C020E301C0AA
:1006C80020E20E9463045150EFCF312F01FF17C081
:1006D8003030A1F003FF06C0EE81FF812591EE8343
:1006E800FF8305C0AE81BF812D91AE83BF830E9479
:1006F8006304503009F051503150EACF4BC020E329
:10070800EE81FF810E94B605E887F987EE81FF81B7
:100718003296EE83FF83E885F985AA85BB85AE17F7
:10072800BF0750F02F5FA885B985EA85FB85EA1BCE
:10073800FB0BEA87FB87EFCF2A3328F003FF02C0C1
:10074800295F01C0295D04FD1AC0213320F4A88562
:10075800B985119709F409C0531710F000FF01C0BB
:1007680013C020E207FF0BC020E3006102FF07C0AF
:100778000B7F4A930E947004503009F051500E9438
:100788006304503009F051503150A885B98512974B
:1007980008F0B5CF00FF08C0503031F05150E0E20A
:1007A800EA930E947004F8CF10E0E0CEAC85BD85D6
:1007B8000E94B2050E94C60564960895FF92F82E1D
:1007C80026971A930A93DE0114960E9456058D0106
:1007D800E0E0EC83ED83EE83EF83DE0118960E9460
:1007E80056050E94B205FA93EA931A930A93E1EA2E
:1007F800F2E0FA93EA93DE011896ACDE19810881DB
:100808002896FF900895BA93AA93A991B991EE27D3
:10081800FF276D91662311F03196FBCF0895BA93A7
:10082800AA93AA27BB27E991F9910590002011F016
:100838001196FBCFFD010895F0E0E130A0E0FA0742
:100848000895ED81FE810E171F070895AA81BB81C7
:100858000C948804FA93EA9380E00E94E2032296BB
:100868000895A1E00E946605E1290895A1E00E948B
:100878006605E095E1210895DE011496A00FB11FE9
:10088800EC91E5BBA8EEB3E00C948804EAE0F0E054
:100898000E9493050895EAE0F0E00E947B05089520
:1008A800DE019096AE0FBF1FEC91E5BB0895E2BB49
:1008B800A5E0B0E00E948804EFE0E2BB08952A9327
:1008C800AD85BE85EF85F88909950895E889F98988
:1008D8003497E88BF98B0895AD85BE85EF85F88947
:1008E80009950895A889B98914960E94B205EE83DE
:1008F800FF83AE81BF810895A889B98914960E94A3
:10090800B205EA87FB870895109639F080ED97E0E5
:100918000197F1F7A8951197C9F70895552342F45F
:10092800503811F4E0FF04C03196691F791F6BF04D
:1009380050E8572711F45F9355C05F3F31F0660FB9
:10094800000C57956795752F08955F9300200AF05E
:1009580055C04EC050E8192E1522880F991F9527AB
:10096800550F879550E8072E0522660F771F7527C4
:10097800550F67950895689401C0E8945F93F2DF76
:10098800703818F07F3F08F42DC056E1571BAAF4C1
:10099800519558300EF4593030F0EFEFFFEF6FEF0C
:1009A8007FE777F91AC077275523B9F0EE0FFF1FB5
:1009B800661F771F5A95D1F710C07727583028F04F
:1009C800EF2FF62F672F5850F9CF552331F0769532
:1009D8006795F795E7955A95D1F700200AF46AD0FC
:1009E8005F910895EE27FF27662777275F9108957F
:1009F800EFEFFFEF6FE77FEF5F910895EFEFFFEF06
:100A08006FE77FE75F9108955F93A4DF703851F334
:100A1800903841F301240894791F23F41CF3002033
:100A28003AF3ECCF0F921F932F933F934F931127D5
:100A380022279927689FA0018F9F302D410D591FAC
:100A48006B9F300D411D591F8E9F27D0BF9F25D00A
:100A58006A9F23D0BE9F1DD0AF9F1BD0AE9F110DA4
:100A6800291F391F491F591FE32FF42F652F522FB4
:100A78004F913F912F911F910F9066232AF0550FA8
:100A8800EE1FFF1F661F02C073954BF247DF5F9191
:100A98000895100D211D391F02C0200D311D491F59
:100AA800591F08950024AF0DB01D0895F195E195E3
:100AB800F0400895F09560957095E195FF4F6F4F60
:100AC8007F4F0895EE230E2EEA2F19F0EE0F0A94A9
:100AD800E9F70895FA9FF02DEB9FF00DEA9FE02DBE
:100AE800F10D08952DD0F6DF0EF4E0DF089500240F
:100AF800112490E1AA0FBB1F001C111C0E1A1F0A1B
:100B080018F40E0E1F1E01C0A1609A9599F7FD01F9
:100B1800D001089515D0EBDF0EF4C8DF0895E7DFA4
:100B2800FD010895E894B7FF04C0A095B09511960B
:100B38006894F7FDBBDFDBDFFD010EF4B7DF089536
:100B4800E894F7FF02C0B2DF6894B7FF06C0A0952B
:100B5800B095119600F8039400FA0895ED91FC9170
:100B6800119708950590F491E02D08959A938A932A
:100B7800BA93AA9308955A934A933A932A931A9345
:100B88000A9308955D814C813B812A8119810881EE
:100B98000895AC0FBD1F05900D928A95E1F7089551
:00000001FF
