:060000000C943B000C947F
:1000060000000C9400000C9400000C9400000C946A
:1000160000000C9400000C9400000C9400000C945A
:1000260000000C9400000C9400000C9400000C944A
:1000360000000C9400000C9400000C9400000C943A
:1000460000000C9400000C9400000C940000102793
:10005600E80364000A00010000100001100001001E
:100066003F065B4F666D7D077F6F4572726F72004C
:10007600F894EE27ECBBF1E0FBBFEBBFE5BF8DE0EC
:10008600A2E0BB27ED938A95E9F780E094E0A0E62D
:10009600ED930197E9F7EFE5EDBFE4E0EEBFC0E6CB
:1000A600D1E00C94E200AA932A978AE0A0E0B0E09F
:1000B600E6E6F0E00E94DC020E94D00200E010E0DA
:1000C600EFEFE4BBE1BBEE85F0E0309729F59098C1
:1000D600919892989398EF85F0E0309761F400E05C
:1000E60010E00A30E0E01E072CF40E946E020F5F5B
:1000F6001F4FF7CF10C0E130A0E0FA0751F409E036
:1001060010E011232AF00E946E0201501040F9CF30
:1001160002C00E9478024FC0E130A0E0FA0709F061
:100126004AC0EF85F0E0909A919A929A939A20E0CD
:1001360030E03097F1F400E010E00A30E0E01E070E
:10014600BCF4E4E0F0E0E217F30711F420E030E05D
:100156000E948102E095E121E2BB0E946E020E94AC
:100166008102E129E2BB2F5F3F4F0F5F1F4FE5CFB3
:1001760022C0E130A0E0FA07E1F409E010E0112323
:10018600BAF0E4E0F0E0E217F30711F420E030E023
:100196000E948102E095E121E2BB0E946E020E946C
:1001A6008102E129E2BB2F5F3F4F01501040E7CFAC
:1001B60002C00E9478020E94D70260960895E1E08C
:1001C600EA93A0E070DFFBCFFFCFAA935D9BFECF43
:1001D600E881ECB921960895BA93AA93AA81F5DF2E
:1001E600A881B981ED91FD913196FE93EE93239608
:1001F6000895BA93AA9326970E94CE0210E0AC8582
:10020600BD85E0E0F0E0ED93FC93EA89FB89319649
:10021600EA8BFB8B3197E4912E2FE03009F415C160
:10022600E12FE03039F4253211F411E002C00E94CA
:1002360087020AC1E130A9F4253219F40E94870227
:1002460002C112E040E000E02D3211F401E0FCC0F2
:100256002B3211F44BE2F8C0203211F440E2F4C024
:1002660002C0E23039F450E013E0203311F40068A4
:10027600EBC003C0E33009F0E7C0203310F02A33A7
:1002860008F007C0AAE05A9F502DE22FE0535E0FF8
:10029600DBC0E22FE33649F40E948E02E889F98931
:1002A600A481AA930E949402CEC0E33741F40E942F
:1002B6008E020E949A020E9455021E2F0AC0E03743
:1002C60061F40E948E020E949A020E9461021E2F11
:1002D600086002600F7730E034C0E43611F0E9368A
:1002E60011F4046002C0E53731F4E4E5F0E0EE8392
:1002F600FF8315E00CC0E83511F4086003C0E83749
:1003060009F0A1C0EEE5F0E0EE83FF8314E002FF02
:1003160014C00E948E020E94A402AB85AA233AF45E
:10032600EA85FB850E94BA02EA87FB874DE24030E8
:1003360011F01F5F01C00B7F04C00E948E020E9455
:10034600A40200FD11C0151778F407FF08C002FFCC
:1003560004C00B7F242F115001C020E301C020E20E
:100366000E9487025150EFCF312F01FF17C0303066
:10037600A1F003FF06C0EE81FF812591EE83FF8386
:1003860005C0AE81BF812D91AE83BF830E948702D7
:10039600503009F051503150EACF4BC020E3EE8186
:1003A600FF810E94CA02E887F987EE81FF813296B3
:1003B600EE83FF83E885F985AA85BB85AE17BF075F
:1003C60050F02F5FA885B985EA85FB85EA1BFB0BF4
:1003D600EA87FB87EFCF2A3328F003FF02C0295FA5
:1003E60001C0295D04FD1AC0213320F4A885B98512
:1003F600119709F409C0531710F000FF01C013C08C
:1004060020E207FF0BC020E3006102FF07C00B7F5D
:100416004A930E949402503009F051500E9487027C
:10042600503009F051503150A885B985129708F01F
:10043600B5CF00FF08C0503031F05150E0E2EA93EA
:100446000E949402F8CF10E0E0CEAC85BD850E94F4
:10045600C6020E94D50264960895FF92F82E26974A
:100466001A930A93DE0114960E94B6028D01E0E00B
:10047600EC83ED83EE83EF83DE0118960E94B602CD
:100486000E94C602FA93EA931A930A93EFEEF0E0FB
:10049600FA93EA93DE011896ACDE19810881289654
:1004A600FF900895BA93AA93A991B991EE27FF27D1
:1004B6006D91662311F03196FBCF0895BA93AA93F6
:1004C600AA27BB27E991F9910590002011F0119612
:1004D600FBCFFD010895DE011496A00FB11FEC912C
:1004E600E5BBA8EEB3E00C94AC02E0E7F0E0FA93CB
:1004F600EA9380E00E9430022296089512B2E22F1B
:10050600A1E00E94BE0208952A93AD85BE85EF85BF
:10051600F88909950895E889F9893497E88BF98B64
:100526000895AD85BE85EF85F88909950895A88952
:10053600B98914960E94C602EE83FF83AE81BF81FD
:100546000895A889B98914960E94C602EA87FB878E
:100556000895109639F080ED97E00197F1F7A89588
:100566001197C9F708950024AF0DB01D0895F195B0
:10057600E195F0400895EE230E2EEA2F19F0EE0FC6
:100586000A94E9F70895ED91FC9111970895059065
:10059600F491E02D08955A934A933A932A931A9325
:1005A6000A9308955D814C813B812A8119810881D6
:1005B6000895AC0FBD1F05900D928A95E1F7089539
:00000001FF
