:0E0000000C94A7000C9400000C94D4000C94F7
:10000E0000000C9400000C9400000C9400000C9462
:10001E0000000C9400000C9400000C9400000C9452
:10002E0000000C9400000C9400000C9400000C9442
:10003E0000000C9400000C9400000C9400000C9432
:10004E0000000C940000757365206B657970616417
:10005E003A20200057656C636F6D6520746F2074B5
:10006E006865206F6E6C696E65206C616220636CD2
:10007E0061737365732064756520746F20436F72AE
:10008E006F6E6120646973656173652E0000303197
:10009E00323334353637383941424344454645725A
:1000AE0066616E2042616872616D69003936323464
:1000BE003531330053706565643F3F28302D353040
:1000CE00290045450054696D653A3F3F28302D396A
:1000DE003973290057656967743A3F3F28302D39C7
:1000EE003946290054656D703A3F3F2832302D381D
:1000FE003043290080C00E00600154000E006E01D6
:10010E00AC0008007C01BA000E008401C20003009E
:10011E009201D0000F009501D3000300A401D0007E
:10012E001000A701E2000300B701D0001000BA01D1
:10013E00F2000300CA01D0000200CD01020100004E
:10014E00F894EE27ECBBF1E0FBBFEBBFE5BF8DE013
:10015E00A2E0BB27ED938A95E9F780E094E0A0E654
:10016E00ED930197E9F7E4E0F1E085919591009721
:10017E0061F0A591B59105901590BF01F001059024
:10018E000D920197E1F7FB01F0CFEFE5EDBFE4E053
:10019E00EEBFC0E6D1E00C94F1000A921A92FA92E8
:1001AE006A937A938A939A93AA93BA93EA93FA9359
:1001BE00EFB7EA93A89A88D0E991EFBFF991E99148
:1001CE00B991A9919991899179916991F990199023
:1001DE000990189513D02CD03AD0A0E6B1E00E9429
:1001EE00990272D0AE2F0E948402A8EEB3E00E9454
:1001FE001F03C9D00E947A02EECFFFCFEFEFEABB0A
:10020E00E0E0EBBBE0EFE7BBE0E0E8BBE4BBE5BB67
:10021E00E1BBE2BBEBB7E068EBBFECE0E5BFE0E0D3
:10022E00E4BFE0E8EABFA0E10E94AA027894089534
:10023E000E94D502AEE6B1E00E94D902ACE7B1E071
:10024E000E949902A8EBBBE00E941F030895EF974E
:10025E002A9789E3A0E1B0E0E2E6F0E00E943803DD
:10026E001A930A9300E010E00E94DE0200E010E014
:10027E00DE0152960E942C020E171F0700F5E0E0D9
:10028E00EA93A1E00E946D02FE013296FA93EA9380
:10029E00F801DE015496EA0FFB1FFA93EA93A0E1F0
:1002AE000E943802DE0112960E949902A8ECB0E07C
:1002BE000E941F030E947A020F5F1F4FD9CF198130
:1002CE000881EF962C960895609780E1A0E0B0E04B
:1002DE00ECE9F0E00E9438030E942E03E0EFE7BB4A
:1002EE00EFEFE8BBEFEF0E94E2021030D9F7EFEF2D
:1002FE000E94E2021030D9F30E94E7021030E1F3BF
:10030E000E94E7021030C1F3EFE10E94E2021030CA
:10031E0011F000E016C0EFE20E94E202103011F080
:10032E0001E00FC0EFE40E94E202103011F002E093
:10033E0008C0EFE80E94E202103011F003E001C0A5
:10034E00E3CF113031F40E94EF02AE0FBF1F3C918C
:10035E0015C0123031F40E94EF02EA0FFB1F3181FB
:10036E000DC0143031F40E94EF02EA0FFB1F3281F0
:10037E0005C00E94EF02EA0FFB1F3381E32F0E949C
:10038E003303649608950E942E030E94F602A4E899
:10039E00B1E00E94D9020E94F802303010F03333DF
:1003AE0008F003C00E94080307C00E94F602A2E9EB
:1003BE00B1E00E940C03E9CF0E94F602A5E9B1E07C
:1003CE000E94D9020E94F802303010F0343608F044
:1003DE0003C00E940E0307C00E94F602A4EAB1E019
:1003EE000E940C03E9CF0E94F602A7EAB1E00E9438
:1003FE00D9020E94F802303010F0343608F003C0F3
:10040E000E940E0307C00E94F602A7EBB1E00E9405
:10041E000C03E9CF0E94F602AAEBB1E00E94D902CA
:10042E000E94F802343110F0313508F003C00E94FA
:10043E000E0307C00E94F602AAECB1E00E940C0364
:10044E00E9CF0E94330324960895BA93AA93A991F3
:10045E00B991EE27FF276D91662311F03196FBCFF0
:10046E000895AA937991E991F991A991B991CD0144
:10047E00772351F07A9561916D936623C9F77723AF
:10048E0019F07A956D93FBCFFC010895AA93EBB307
:10049E00EF70AE2FE881E07FEA2BEBBB8DE08A9503
:1004AE00F1F7DA9A8DE08A95F1F7DA988DE08A9570
:1004BE00F1F772C0AA93A881E9DFE881E295E8839B
:1004CE00A881E4DF85E88A95F1F766C0AA93E881F2
:1004DE00F0E0E353FE4FE081A981AE0FEBDF5980D0
:1004EE00488022960895A2E097D0ACE0E3DFA1E029
:1004FE0093D0E0E04E2E5E2E0895AA93A881AA30E6
:10050E0011F0571448F0E0E0EA934394A42DDEDF97
:10051E00A881AA3009F440C05394D89AA881CADFA2
:10052E00D8983AC0BA93AA931A93A981BA81ED9139
:10053E00A983BA831E2FE03019F0A12FDEDFF5CF8D
:10054E00188123960895AA93EAB3E06FEABBD29A74
:10055E00D09AD19ADA98D898D9987880E881E058CC
:10056E00E093CF01E881E054E093D001A4E1B0E044
:10057E000E941F0356D055D054D0A0E287DF88ECDE
:10058E0090E00197F1F7A8E295DFA4E093DFA5E8EC
:10059E0091DFA6E08FDFA7DF21960895E0E0EA93D2
:1005AE00A0E094CFBFDFE0E0EA93A1E08FCFA4EF0D
:1005BE00B1E00C941F03E8BBE6B3EF701E2F089555
:1005CE00A4E1B0E00E941F03E6B3EF701E2F089562
:1005DE00E02FF0E0DE0114960E942903089583DFD8
:1005EE00DDCF0E946B011E2FA12F87DF0E946B01B2
:1005FE000E2FA02F82DFAAE01A02F001E00F3E2F8D
:10060E00D6CFACEDB5E00C941F038CDFFACFA12F43
:10061E0074DFA02F72DFF5CF4DDFA3E0B0E00C94B6
:10062E001F03A0E333DF88EC90E00197F1F7089504
:10063E00109639F080ED97E00197F1F7A895119794
:10064E00C9F70895EE0FFF1FEE0FFF1F08953A939F
:10065E002A931A930A9308953B812A81198108815E
:10066E000895AC0FBD1F05900D928A95E1F7089580
:00000001FF
