:100000000C9437000C9400000C9400000C94000039
:100010000C9400000C9400000C9400000C94000060
:100020000C9400000C9400000C9400000C94000050
:100030000C9400000C9400000C9400000C94000040
:100040000C9400000C9400000C9400000C94000030
:100050000C94000030313233343536373839414270
:100060004344454680C00200600164000000F894EB
:10007000EE27ECBBF1E0FBBFEBBFE5BF8DE0A2E0FC
:10008000BB27ED938A95E9F780E094E0A0E6ED9335
:100090000197E9F7E6E6F0E085919591009761F028
:1000A000A591B59105901590BF01F00105900D92B5
:1000B0000197E1F7FB01F0CFEFE5EDBFE4E0EEBF24
:1000C000C0E6D1E00C94B700609780E1A0E0B0E01A
:1000D000E4E5F0E00E9479010E946F01E0EFE7BBE8
:1000E000EFEFE8BBEFEFCCD01030E1F7EFEFC8D087
:1000F0001030E1F3CAD01030E9F3C7D01030D1F39B
:10010000EFE1BED0103011F000E013C0EFE2B8D044
:10011000103011F001E00DC0EFE4B2D0103011F05A
:1001200002E007C0EFE8ACD0103011F003E001C0EE
:10013000E7CF113029F4B1D0AE0FBF1F3C9112C0F0
:10014000123029F4AAD0EA0FFB1F31810BC0143002
:1001500029F4A3D0EA0FFB1F328104C09ED0EA0F1E
:10016000FB1F3381E32F0E94740164960895EFEF23
:10017000EABBE0E0EBBBE0EFE7BBE8BBE0E0E4BB01
:10018000E5BBE1BBE2BBA0E150D09EDFAE2F39D092
:10019000FCCFFFCFAA93EBB3EF70AE2FE881E07FE7
:1001A000EA2BEBBB8DE08A95F1F7DA9A8DE08A9520
:1001B000F1F7DA988DE08A95F1F760C0AA93A881EB
:1001C000E9DFE881E295E883A881E4DF85E88A95A4
:1001D000F1F754C0AA93E881F0E0E05AFE4FE081C5
:1001E000A981AE0FEBDF5980488022960895A2E0E6
:1001F0005BD0ACE0E3DFA1E057D0E0E04E2E5E2E16
:100200000895AA93A881AA3011F0571440F0E0E0B5
:10021000EA934394A42DDEDFA881AA3079F15394A8
:10022000D89AA881CBDFD89829C0AA93EAB3E06F07
:10023000EABBD29AD09AD19ADA98D898D99878808D
:10024000E881E058E0936201E881E054E0936301C3
:10025000A4E1B0E00E9460012CD02BD02AD0A0E213
:1002600099DF88EC90E00197F1F7A8E2A7DFA4E01E
:10027000A5DFA5E8A3DFA6E0A1DFB9DF21960895F9
:10028000E8BBE6B3EF701E2F0895A4E1B0E00E9432
:100290006001E6B3EF701E2F0895E02FF0E0DE015D
:1002A00014960E946A01089589DFA3E0B0E00C94DF
:1002B0006001A0E36FDF88EC90E00197F1F708950B
:1002C000109639F080ED97E00197F1F7A895119716
:1002D000C9F70895EE0FFF1FEE0FFF1F08953A9321
:1002E0002A931A930A9308953B812A8119810881E0
:1002F0000895AC0FBD1F05900D928A95E1F7089502
:00000001FF
