:100000000C9447000C9474000C9400000C940000B5
:100010000C9400000C9400000C9400000C94000060
:100020000C9400000C9475000C9400000C940000DB
:100030000C9400000C9400000C9400000C94000040
:100040000C9400000C9400000C9400000C94000030
:100050000C9400001027E80364000A00010000105F
:1000600000011000010000000000253032643A2534
:100070003032643A253032643A253032640080C030
:10008000040004006600020074017E000000F89481
:10009000EE27ECBBF1E0FBBFEBBFE5BF8DE0A2E0DC
:1000A000BB27ED938A95E9F780E094E0A0E6ED9315
:1000B0000197E9F7E0E8F0E085919591009761F00C
:1000C000A591B59105901590BF01F00105900D9295
:1000D0000197E1F7FB01F0CFEFE5EDBFE4E0EEBF04
:1000E000C0E6D1E00C94E40018950A921A92FA92B4
:1000F0006A937A938A939A93AA93BA93EA93FA9318
:10010000EFB7EA93E2EBE2BFB49903C0E1E09E2EC1
:100110008824E1E0E91599F45394E4E6E51579F4CF
:1001200043945524ECE3E41551F473944424E71507
:1001300031F463947724E8E1E61509F46624B5996F
:1001400002C0882009F007C0E1E08E2E9924A4E1C6
:10015000B0E00E94AB03B59903C0E1E0E81509F0F7
:1001600004C05524442477246624E0E0EA93A0E008
:100170000E94E502A0E6B1E00E941303E0E6F1E090
:10018000FA93EA93EAE6F0E0FA93EA93E62D0E9406
:100190006B03E72D0E946B03E42D0E946B03E52D9A
:1001A0000E946B0380E10E9491026496E991EFBF87
:1001B000F991E991B991A99199918991799169916F
:1001C000F990199009901895E0E0EABBEBBBE7BB0A
:1001D000E8BBEFEFE4BBE0E0E5BBE1BBE2BBE5E0A1
:1001E000E3BFE2EBE2BFE0E0ECBFEFBDEEBDEDBD93
:1001F000ECBDE7BDE6BDEBBDEABDE9BDE8BDE2BDD6
:10020000E5BDE4BDE3BDE1E0E9BFEBB7E064EBBF12
:10021000E2E0E5BFE0E0E4BFE0E4EABFE0E0EAB945
:10022000E0E8E8B9E0E0E0BFE6B9EDB9E6BFA0E19B
:100230000E9424037894FFCFFFCFBA93AA931A9316
:100240000A93AA81BB8112960E94BD03309759F18F
:10025000AA81BB8114960E94BD038F01309761F083
:100260000230E0E01E0798F0F80131978F01AA8173
:10027000BB811496ED93FC93AA81BB811296ED91FC
:10028000FD913196FE93EE933197AC81A083AA81C4
:10029000BB810E94BD03FF232AF0ED91FD913196B1
:1002A000FE93EE9306C0AA81BB81EFEFFFEFED93C3
:1002B000FC931981088125960895BA93AA932697ED
:1002C0000E94CA0310E0AC85BD85E0E0F0E0ED934C
:1002D000FC93EA89FB893196EA8BFB8B3197E49199
:1002E0002E2FE03009F415C1E12FE03039F425322A
:1002F00011F411E002C00E9471030AC1E130A9F4B7
:10030000253219F40E94710302C112E040E000E0BE
:100310002D3211F401E0FCC02B3211F44BE2F8C095
:10032000203211F440E2F4C002C0E23039F450E06F
:1003300013E0203311F40068EBC003C0E33009F090
:10034000E7C0203310F02A3308F007C0AAE05A9F14
:10035000502DE22FE0535E0FDBC0E22FE33649F46D
:100360000E947803E889F989A481AA930E947E03F8
:10037000CEC0E33741F40E9478030E9484030E94B8
:1003800052031E2F0AC0E03761F40E9478030E94D6
:1003900084030E945E031E2F086002600F7730E026
:1003A00034C0E43611F0E93611F4046002C0E537D8
:1003B00031F4E4E5F0E0EE83FF8315E00CC0E835AE
:1003C00011F4086003C0E83709F0A1C0EEE5F0E0E1
:1003D000EE83FF8314E002FF14C00E9478030E94A2
:1003E0008E03AB85AA233AF4EA85FB850E94B90304
:1003F000EA87FB874DE2403011F01F5F01C00B7FA1
:1004000004C00E9478030E948E0300FD11C01517DE
:1004100078F407FF08C002FF04C00B7F242F11509F
:1004200001C020E301C020E20E9471035150EFCFD0
:10043000312F01FF17C03030A1F003FF06C0EE815D
:10044000FF812591EE83FF8305C0AE81BF812D9191
:10045000AE83BF830E947103503009F05150315078
:10046000EACF4BC020E3EE81FF810E94C103E88701
:10047000F987EE81FF813296EE83FF83E885F98567
:10048000AA85BB85AE17BF0750F02F5FA885B98539
:10049000EA85FB85EA1BFB0BEA87FB87EFCF2A3354
:1004A00028F003FF02C0295F01C0295D04FD1AC0C6
:1004B000213320F4A885B985119709F409C0531791
:1004C00010F000FF01C013C020E207FF0BC020E3C3
:1004D000006102FF07C00B7F4A930E947E035030E9
:1004E00009F051500E947103503009F051503150C1
:1004F000A885B985129708F0B5CF00FF08C0503025
:1005000031F05150E0E2EA930E947E03F8CF10E010
:10051000E0CEAC85BD850E94BD030E94D1036496E8
:100520000895FF92F82E26970E94CC030E9496030E
:10053000309719F4EFEFFFEF23C0DE0116960E940B
:10054000B5038D010E949603EE83FF83E0E0E88708
:10055000E987DE011A960E94B5030E94BD03FA9353
:10056000EA931A930A93EDE1F1E0FA93EA93DE013C
:100570001A96A3DE9F01AE81BF81E0E0EC93F90102
:100580000E94D3032A96FF900895AA93E5B3EF70D3
:10059000AE2FE881E07FEA2BE5BB8DE08A95F1F78D
:1005A000AA9A8DE08A95F1F7AA988DE08A95F1F7DD
:1005B00077C0AA93A881E9DFE881E295E883A88162
:1005C000E4DF85E88A95F1F76BC0AA93E881F0E053
:1005D000EC58FE4FE081A981AE0FEBDFB980A88017
:1005E00022960895A2E00E949D03ACE0E2DFA1E024
:1005F0000E949D03E0E0AE2EBE2E0895AA93A8812E
:10060000AA3011F0BD1448F0E0E0EA93A394AA2DBB
:10061000DCDFA881AA3009F443C0B394A89AA8816A
:10062000C8DFA8983DC0BA93AA931A93A981BA814A
:10063000ED91A983BA831E2FE03019F0A12FDEDFE0
:10064000F5CF188123960895AA93E4B3E06FE4BB35
:10065000A29AA09AA19AAA98A898A998D880E88165
:10066000E058E0937601E881E054E0937701A4E15B
:10067000B0E00E94AB030E94A3030E94A3030E9468
:10068000A303A0E282DF88EC90E00197F1F7A8E2F3
:1006900090DFA4E08EDFA5E88CDFA6E08ADFA2DF92
:1006A00021960895BA93AA93A991B991EE27FF27AD
:1006B0006D91662311F03196FBCF0895BA93AA93FA
:1006C000AA27BB27E991F9910590002011F0119616
:1006D000FBCFFD010895FF27662777270E94C503FA
:1006E00008952A93AD85BE85EF85F889099508950B
:1006F000E889F9893497E88BF98B0895AD85BE8533
:10070000EF85F88909950895A889B98914960E94FA
:10071000BD03EE83FF83AE81BF810895A889B989A7
:1007200014960E94BD03EA87FB870895DE011C969C
:100730000E94B5030E94BD0308950E94D902A3E060
:10074000B0E00C94AB03A0E30E94C50288EC90E0FB
:100750000197F1F70895109639F080ED97E0019731
:10076000F1F7A8951197C9F708950024AF0DB01DB2
:100770000895F195E195F0400895ED91FC91119760
:1007800008950590F491E02D08957A936A93FA9371
:10079000EA9308955A934A933A932A931A930A93A1
:1007A00008955D814C813B812A81198108810895DA
:00000001FF
