:0C0000000C9467000C9400000C940000AD
:10000C000C9400000C9400000C9400000C94000064
:10001C000C9400000C9400000C9400000C94000054
:10002C000C9494000C9400000C9400000C940000B0
:10003C000C9400000C9400000C9400000C94000034
:10004C000C9400000C9400001027E80364000A00D4
:10005C000100001000011000010000000000000071
:10006C000D4461746120697320696E7465676572F3
:10007C0020616E642031302A646174613D256330E7
:10008C000D006C63642064656C657465000D206CF8
:10009C0061756768206275646479200D000D6E6F60
:1000AC002066756E6374696F6E0D000080C0010070
:1000BC000200660004000400680002006801B80039
:1000CC000000F894EE27ECBBF1E0FBBFEBBFE5BF03
:1000DC008DE0A2E0BB27ED938A95E9F780E094E0F0
:1000EC00A0E6ED930197E9F7EAEBF0E085919591A5
:1000FC00009761F0A591B59105901590BF01F001A5
:10010C0005900D920197E1F7FB01F0CFEFE5EDBF04
:10011C00E4E0EEBFC0E6D1E00C94DF000A921A9244
:10012C00FA926A937A938A939A93AA93BA93EA93DC
:10013C00FA93EFB7EA931A930A931BB10CB10033FD
:10014C0010F00A3308F00FC0ECE6F0E0FA93EA93F3
:10015C00E02FFF27662777270E944B0484E00E943C
:10016C004203269616C0043439F40E949A01AEE874
:10017C00B0E00E94BB010DC0083419F4E9E9F0E0CD
:10018C0002C0E9EAF0E0FA93EA9380E00E944203AD
:10019C00229609911991E991EFBFF991E991B991E1
:1001AC00A9919991899179916991F99019900990F6
:1001BC001895E0E0EABBEBBBE7BBE8BBEFEFE4BBB9
:1001CC00E0E0E5BBE1BBE2BBA0E10E94CD01E0E8D1
:1001DC00F5E2FA93EA93EBE0F0E0FA93EA93A1E00C
:1001EC00B0E003D07894FFCFFFCFBA93AA932897AF
:1001FC00E0E0E883E983EA83EB83EC83ED83EE8331
:10020C00EF830E94500420E030E040E050E0A889E9
:10021C00B989EAE0F0E00E94E503EC87FD87A88944
:10022C00B989EAE0F0E00E941404EA87FB87AE8506
:10023C00BF85EAE0F0E00E94E503E887F987AE8528
:10024C00BF85EAE0F0E00E941404EE83FF83EA89A4
:10025C00FB890E94CD03A0E2B1EA87E090E00E9406
:10026C000F0431978F010436E0E01E0724F4E0E020
:10027C00E0BD09B90EC0D801E4E6F0E00E94E50348
:10028C009F01D801E4E6F0E00E941404AF0120BD08
:10029C0049B9E0E0EBB9EC85E795E0E0E795AE2FE6
:1002AC00E885E295E07FEE0FEE0FEA2BAE2FEA85A4
:1002BC00E295E07FEA2BAE2FEE81EE0FEE0FEE0F04
:1002CC00EA2BEAB9E6E8E0BD0C943E03AA93E5B349
:1002DC00EF70AE2FE881E07FEA2BE5BB8DE08A95CD
:1002EC00F1F7AA9A8DE08A95F1F7AA988DE08A9594
:1002FC00F1F70C94FF01AA93A881E8DFE881E2955D
:10030C00E883A881E3DF85E88A95F1F772C0AA93A8
:10031C00E881F0E0E859FE4FE081A981AE0FEBDFF8
:10032C006980988022960895A2E00E948003ACE038
:10033C00E2DFA1E00E948003E0E09E2E6E2E089585
:10034C00AA93A881AA3011F0681448F0E0E0EA936F
:10035C009394A92DDCDFA881AA3009F44AC06394D8
:10036C00A89AA881C8DFA89844C0BA93AA931A93F4
:10037C00E981FA813196E983FA833197E4911E2F52
:10038C00E03019F0A12FDCDFF3CF18813FC0AA9326
:10039C00E4B3E06FE4BBA29AA09AA19AAA98A89899
:1003AC00A9988880E881E058E0936A01E881E054DC
:1003BC00E0936B01A4E1B0E00E94B3030E948603BA
:1003CC000E9486030E948603A0E280DF88EC90E006
:1003DC000197F1F7A8E28FDFA4E08DDFA5E88BDFB2
:1003EC00A6E089DFA1DF05C0AA935D9BFECFE88163
:1003FC00ECB921960895BA93AA93AA81F5DFA88146
:10040C00B981ED91FD913196FE93EE93239608956B
:10041C00BA93AA9326970E94500410E0AC85BD8530
:10042C00E0E0F0E0ED93FC93EA89FB893196EA8BEE
:10043C00FB8B3197E4912E2FE03009F415C1E12F9D
:10044C00E03039F4253211F411E002C00E948E0321
:10045C000AC1E130A9F4253219F40E948E0302C1BD
:10046C0012E040E000E02D3211F401E0FCC02B3230
:10047C0011F44BE2F8C0203211F440E2F4C002C097
:10048C00E23039F450E013E0203311F40068EBC093
:10049C0003C0E33009F0E7C0203310F02A3308F032
:1004AC0007C0AAE05A9F502DE22FE0535E0FDBC02D
:1004BC00E22FE33649F40E949503E889F989A48177
:1004CC00AA930E949B03CEC0E33741F40E9495038C
:1004DC000E94A1030E9467031E2F0AC0E03761F43B
:1004EC000E9495030E94A1030E9473031E2F0860B3
:1004FC0002600F7730E034C0E43611F0E93611F4C5
:10050C00046002C0E53731F4E4E5F0E0EE83FF83EC
:10051C0015E00CC0E83511F4086003C0E83709F0A9
:10052C00A1C0EEE5F0E0EE83FF8314E002FF14C0FF
:10053C000E9495030E94AB03AB85AA233AF4EA858B
:10054C00FB850E94C103EA87FB874DE2403011F026
:10055C001F5F01C00B7F04C00E9495030E94AB0378
:10056C0000FD11C0151778F407FF08C002FF04C086
:10057C000B7F242F115001C020E301C020E20E9408
:10058C008E035150EFCF312F01FF17C03030A1F047
:10059C0003FF06C0EE81FF812591EE83FF8305C02A
:1005AC00AE81BF812D91AE83BF830E948E035030EC
:1005BC0009F051503150EACF4BC020E3EE81FF815E
:1005CC000E944704E887F987EE81FF813296EE831B
:1005DC00FF83E885F985AA85BB85AE17BF0750F068
:1005EC002F5FA885B985EA85FB85EA1BFB0BEA879B
:1005FC00FB87EFCF2A3328F003FF02C0295F01C02D
:10060C00295D04FD1AC0213320F4A885B985119702
:10061C0009F409C0531710F000FF01C013C020E209
:10062C0007FF0BC020E3006102FF07C00B7F4A935A
:10063C000E949B03503009F051500E948E035030A1
:10064C0009F051503150A885B985129708F0B5CFF3
:10065C0000FF08C0503031F05150E0E2EA930E94A4
:10066C009B03F8CF10E0E0CEAC85BD850E9443041F
:10067C000E94570464960895FF92F82E26971A93B9
:10068C000A93DE0114960E94BD038D01E0E0EC8319
:10069C00ED83EE83EF83DE0118960E94BD030E946A
:1006AC004304FA93EA931A930A93E1E0F2E0FA9383
:1006BC00EA93DE011896ACDE198108812896FF902A
:1006CC000895BA93AA93A991B991EE27FF276D913A
:1006DC00662311F03196FBCF0895BA93AA93AA27FB
:1006EC00BB27E991F9910590002011F01196FBCFF1
:1006FC00FD0108950E948101A3E0B0E00C94B303C6
:10070C00A0E30E946C0188EC90E00197F1F708954A
:10071C002A93AD85BE85EF85F88909950895E889FA
:10072C00F9893497E88BF98B0895AD85BE85EF85F3
:10073C00F88909950895A889B98914960E944304EB
:10074C00EE83FF83AE81BF810895A889B989149681
:10075C000E944304EA87FB870895109639F080EDD8
:10076C0097E00197F1F7A8951197C9F70895002420
:10077C00AF0DB01D0895F195E195F0400895F095F9
:10078C0060957095E195FF4F6F4F7F4F08956F2FD8
:10079C00660F660B762F08950024112490E1AA0FA2
:1007AC00BB1F001C111C0E1A1F0A18F40E0E1F1E64
:1007BC0001C0A1609A9599F7FD01D00108953CD034
:1007CC00EBDF0EF4D8DF08953F934F935F93002433
:1007DC0011244427552730E2AA0FBB1F881F991FED
:1007EC00001C111C441F551F0E1A1F0A460B570BD9
:1007FC0028F40E0E1F1E461F571F01C0A1603A950C
:10080C0059F7FD01BC01D001CA015F914F913F9195
:10081C00089520D0D9DF0EF4B2DF0895E894B7FF25
:10082C0004C0A095B09511966894F7FDA4DFB4DFD1
:10083C00FD010EF4A0DF0895E894F7FF02C09BDFE2
:10084C006894B7FF06C0A095B095119600F8039474
:10085C0000FA0895E89477FF02C091DF689497FF3F
:10086C000BC00024A095B095809590951196801D95
:10087C00901D00F8039400FA0895ED91FC911197E6
:10088C0008950590F491E02D08957A936A93FA9364
:10089C00EA9308955A934A933A932A931A930A9394
:1008AC0008955D814C813B812A81198108810895CD
:00000001FF
