:0E0000000C9434000C9400000C9400000C943E
:10000E0000000C9400000C9400000C9400000C9462
:10001E0000000C9400000C9400000C9400000C9452
:10002E0000000C9400000C9400000C9400000C9442
:10003E0000000C9400000C9400000C9400000C9432
:10004E0000000C940000BF86DBCFE6EDFD87FFEFCE
:10005E003F065B4F666D7D077F6FF894EE27ECBB16
:10006E00F1E0FBBFEBBFE5BF8DE0A2E0BB27ED9358
:10007E008A95E9F780E094E0A0E6ED930197E9F721
:10008E00EFE5EDBFE4E0EEBFC0E6D1E00C94BF00BB
:10009E00A29784E1AEE0B0E0E4E5F0E00E94480112
:1000AE000E943A0100E010E020E030E009B3112791
:1000BE00F801AAE0B0E00E94FE008F0111230AF4BD
:1000CE0053C0D801EAE0F0E00E941E01AF01D80152
:1000DE00EAE0F0E00E941601EC87FD87AC85BD8555
:1000EE0057D0EA8BFB8BAC85BD8557D0EA87FB8753
:1000FE00AA85BB854DD0E88BF98BAA85BB854DD0E3
:10010E00E887F987A885B98543D0EE87FF87A8854C
:10011E00B98543D0EE83FF83EE85FF8543D0EEE0B5
:10012E0048D0E889F9893ED0EDE043D0EA89FB89D1
:10013E00DE015496AE0FBF1FEC91E5BBEBE039D05C
:10014E00DE015E96A40FB51FEC91E5BBE7E031D062
:10015E002F5F3F4FE4E1F0E0E217F30721F4025086
:10016E00104020E030E0AACF0E944101A8960895E9
:10017E00E0E0EABBEBBBE7BBE8BBEFEFE4BBE0E0E4
:10018E00E5BBEFE0E1BBE0E0E2BB82DFFECFFFCFFD
:10019E00EAE0F0E00E941B010895EAE0F0E00E9420
:1001AE0003010895DE015E96AE0FBF1FEC91E5BB15
:1001BE000895E2BBA5E0B0E00E94E800EFE0E2BBEC
:1001CE000895109639F080ED97E00197F1F7A89514
:1001DE001197C9F70895F195E195F0400895FA9FAA
:1001EE00F02DEB9FF00DEA9FE02DF10D08952DD02F
:1001FE00F6DF0EF4F0DF08950024112490E1AA0F2B
:10020E00BB1F001C111C0E1A1F0A18F40E0E1F1E07
:10021E0001C0A1609A9599F7FD01D001089515D0FE
:10022E00EBDF0EF4D8DF0895E7DFFD010895E894C3
:10023E00B7FF04C0A095B09511966894F7FDCBDF7B
:10024E00DBDFFD010EF4C7DF0895E894F7FF02C06F
:10025E00C2DF6894B7FF06C0A095B095119600F85E
:10026E00039400FA08955A934A933A932A931A9351
:10027E000A9308955D814C813B812A811981088101
:10028E000895AC0FBD1F05900D928A95E1F7089564
:00000001FF
