:0E0000000C9446000C9473000C9400000C94B9
:10000E0000000C9400000C9400000C9400000C9462
:10001E0000000C9400000C9400000C9400000C9452
:10002E0000000C9400000C9400000C9400000C9442
:10003E0000000C9400000C9400000C947F000C94B3
:10004E0000000C9400001027E80364000A00010071
:10005E000010000110000100E80343453A2530303E
:10006E0032640066756C6C0080C00200040066008D
:10007E000500600171000200790176000000F8941D
:10008E00EE27ECBBF1E0FBBFEBBFE5BF8DE0A2E0DE
:10009E00BB27ED938A95E9F780E094E0A0E6ED9317
:1000AE000197E9F7E8E7F0E085919591009761F007
:1000BE00A591B59105901590BF01F00105900D9297
:1000CE000197E1F7FB01F0CFEFE5EDBFE4E0EEBF06
:1000DE00C0E6D1E00C94A6000E942A03F2013196EC
:1000EE002F01A5E0B0E00E948D030E94390319C0D4
:1000FE000E942A03A5E0B0E00E948D03F201319721
:10010E002F010E943903042C052859F47BD0E0E01E
:10011E00EA93A1E06AD0A0E6B1E095D0E8EEF3E074
:10012E002F01E991EFBFF991E991B991A9919991B7
:10013E00899179916991F990199009901895E0E05B
:10014E00EABBEBBBE7BBE8BBEFEFE4BBE0E0E5BB34
:10015E00E1BBE2BBE3BFE2BFECBFEFBDEEBDEDBD69
:10016E00ECBDE7BDE6BDEBBDEABDE9BDE8BDE2BD58
:10017E00E5BDE4BDE3BDE9BFEBB7E066EBBFE2E092
:10018E00E5BFE0E0E4BFE0E6EABFE0E0EAB9E0E8C0
:10019E00E8B9E0E0E0BFE6B9EDB9E6BFA0E164D0B2
:1001AE000E9439037894FFCFFFCFAA93E5B3EF7087
:1001BE00AE2FE881E07FEA2BE5BB8DE08A95F1F763
:1001CE00AA9A8DE08A95F1F7AA988DE08A95F1F7B3
:1001DE0077C0AA93A881E9DFE881E295E883A88138
:1001EE00E4DF85E88A95F1F76BC0AA93E881F0E029
:1001FE00E758FE4FE081A981AE0FEBDF7980688072
:10020E0022960895A2E00E945303ACE0E2DFA1E043
:10021E000E945303E0E06E2E7E2E0895AA93A881CD
:10022E00AA3011F0791448F0E0E0EA936394A62D19
:10023E00DCDFA881AA3009F443C07394A89AA88180
:10024E00C8DFA8983DC0BA93AA931A93A981BA8120
:10025E00ED91A983BA831E2FE03019F0A12FDEDFB6
:10026E00F5CF188123960895AA93E4B3E06FE4BB0B
:10027E00A29AA09AA19AAA98A898A9989880E8817B
:10028E00E058E0937B01E881E054E0937C01A4E127
:10029E00B0E00E948D030E9459030E9459030E94F0
:1002AE005903A0E282DF88EC90E00197F1F7A8E213
:1002BE0090DFA4E08EDFA5E88CDFA6E08ADFA2DF68
:1002CE0021960895BA93AA931A930A93AA81BB8191
:1002DE0012960E94A403309759F1AA81BB811496FD
:1002EE000E94A4038F01309761F00230E0E01E07F8
:1002FE0098F0F80131978F01AA81BB811496ED9386
:10030E00FC93AA81BB811296ED91FD913196FE93DD
:10031E00EE933197AC81A083AA81BB810E94A40386
:10032E00FF232AF0ED91FD913196FE93EE9306C0D8
:10033E00AA81BB81EFEFFFEFED93FC93198108814A
:10034E0025960895BA93AA9326970E94B10310E0BA
:10035E00AC85BD85E0E0F0E0ED93FC93EA89FB8986
:10036E003196EA8BFB8B3197E4912E2FE03009F416
:10037E0015C1E12FE03039F4253211F411E002C03D
:10038E000E9461030AC1E130A9F4253219F40E94DA
:10039E00610302C112E040E000E02D3211F401E0F1
:1003AE00FCC02B3211F44BE2F8C0203211F440E2C3
:1003BE00F4C002C0E23039F450E013E0203311F4FF
:1003CE000068EBC003C0E33009F0E7C0203310F043
:1003DE002A3308F007C0AAE05A9F502DE22FE053AF
:1003EE005E0FDBC0E22FE33649F40E946803E88912
:1003FE00F989A481AA930E946E03CEC0E33741F41B
:10040E000E9468030E9474030E9411031E2F0AC0EB
:10041E00E03761F40E9468030E9474030E941D037A
:10042E001E2F086002600F7730E034C0E43611F002
:10043E00E93611F4046002C0E53731F4E4E5F0E08A
:10044E00EE83FF8315E00CC0E83511F4086003C09D
:10045E00E83709F0A1C0EEE5F0E0EE83FF8314E08B
:10046E0002FF14C00E9468030E947E03AB85AA237C
:10047E003AF4EA85FB850E949B03EA87FB874DE2EF
:10048E00403011F01F5F01C00B7F04C00E94680353
:10049E000E947E0300FD11C0151778F407FF08C0F7
:1004AE0002FF04C00B7F242F115001C020E301C0B6
:1004BE0020E20E9461035150EFCF312F01FF17C090
:1004CE003030A1F003FF06C0EE81FF812591EE834F
:1004DE00FF8305C0AE81BF812D91AE83BF830E9485
:1004EE006103503009F051503150EACF4BC020E338
:1004FE00EE81FF810E94A803E887F987EE81FF81D4
:10050E003296EE83FF83E885F985AA85BB85AE1703
:10051E00BF0750F02F5FA885B985EA85FB85EA1BDA
:10052E00FB0BEA87FB87EFCF2A3328F003FF02C0CD
:10053E00295F01C0295D04FD1AC0213320F4A8856E
:10054E00B985119709F409C0531710F000FF01C0C7
:10055E0013C020E207FF0BC020E3006102FF07C0BB
:10056E000B7F4A930E946E03503009F051500E9447
:10057E006103503009F051503150A885B98512975A
:10058E0008F0B5CF00FF08C0503031F05150E0E216
:10059E00EA930E946E03F8CF10E0E0CEAC85BD85E5
:1005AE000E94A4030E94B80364960895FF92F82E49
:1005BE0026970E94B3030E948603309719F4EFEF3B
:1005CE00FFEF23C0DE0116960E9497038D010E9455
:1005DE008603EE83FF83E0E0E887E987DE011A9663
:1005EE000E9497030E94A403FA93EA931A930A9324
:1005FE00E9E6F1E0FA93EA93DE011A96A3DE9F0193
:10060E00AE81BF81E0E0EC93F9010E94BA032A9615
:10061E00FF900895BA93AA93A991B991EE27FF2757
:10062E006D91662311F03196FBCF0895BA93AA937C
:10063E00AA27BB27E991F9910590002011F0119698
:10064E00FBCFFD0108950A921A92FA926A937A9359
:10065E008A939A93AA93BA93EA93FA93EFB7EA938B
:10066E000C940901E0E0EA93A1E00E94FC00E5E6AB
:10067E00F1E0FA93EA93E8E6F0E0FA93EA93F201F6
:10068E000E949F030E94AC0384E00E94DD02289624
:10069E00A5E6B1E00C942A010E94F000A3E0B0E0C0
:1006AE000C948D03A0E30E94DC0088EC90E001978F
:1006BE00F1F708952A93AD85BE85EF85F8890995E2
:1006CE000895E889F9893497E88BF98B0895AD85FB
:1006DE00BE85EF85F88909950895A889B98914967C
:1006EE000E94A403EE83FF83AE81BF810895A88983
:1006FE00B98914960E94A403EA87FB870895DE0148
:10070E001C960E9497030E94A4030895109639F038
:10071E0080ED97E00197F1F7A8951197C9F7089525
:10072E000024AF0DB01D0895F195E195F0400895A8
:10073E006F2F660F660B762F0895ED91FC91119732
:10074E0008950590F491E02D08957A936A93FA93A3
:10075E00EA9308955A934A933A932A931A930A93D3
:10076E0008955D814C813B812A811981088108950C
:00000001FF
