:0E0000000C944C000C9400000C9400000C9426
:10000E0000000C9400000C9400000C9400000C9462
:10001E0000000C9400000C9400000C9400000C9452
:10002E0000000C9400000C9400000C9400000C9442
:10003E0000000C9400000C9400000C9400000C9432
:10004E0000000C94000057656C636F6D6520746F33
:10005E0020746865206F6E6C696E65206C6162201D
:10006E00636C61737365732064756520746F2043D0
:10007E006F726F6E6120646973656173652E000027
:10008E0080C0020060018E000000F894EE27ECBBE9
:10009E00F1E0FBBFEBBFE5BF8DE0A2E0BB27ED9328
:1000AE008A95E9F780E094E0A0E6ED930197E9F7F1
:1000BE00E0E9F0E085919591009761F0A591B591F9
:1000CE0005901590BF01F00105900D920197E1F793
:1000DE00FB01F0CFEFE5EDBFE4E0EEBFC0E6D1E00F
:1000EE000C94B800EF972A9789E3A0E1B0E0E4E51D
:1000FE00F0E00E9480011A930A9300E010E0A4EF52
:10010E00B1E00E94760100E010E0DE0152960E94FE
:10011E00C1000E171F0700F5E0E0EA93A1E00E9470
:10012E000201FE013296FA93EA93F801DE0154962B
:10013E00EA0FFB1FFA93EA93A0E10E94CD00DE01C5
:10014E0012960E942E01A8ECB0E00E9476010E9449
:10015E000F010F5F1F4FD9CF19810881EF962C9693
:10016E000895EFEFEABBE0E0EBBBA0E10E943F0198
:10017E00B9DFFFCFBA93AA93A991B991EE27FF27C2
:10018E006D91662311F03196FBCF0895AA93799164
:10019E00E991F991A991B991CD01772351F07A9511
:1001AE0061916D936623C9F7772319F07A956D9354
:1001BE00FBCFFC010895AA93EBB3EF70AE2FE8814D
:1001CE00E07FEA2BEBBB8DE08A95F1F7DA9A8DE0B2
:1001DE008A95F1F7DA988DE08A95F1F772C0AA93B5
:1001EE00A881E9DFE881E295E883A881E4DF85E86C
:1001FE008A95F1F766C0AA93E881F0E0E05AFE4FC7
:10020E00E081A981AE0FEBDF5980488022960895D8
:10021E00A2E059D0ACE0E3DFA1E055D0E0E04E2EF5
:10022E005E2E0895AA93A881AA3011F0571448F0B3
:10023E00E0E0EA934394A42DDEDFA881AA3009F40E
:10024E0040C05394D89AA881CADFD8983AC0BA93BE
:10025E00AA931A93A981BA81ED91A983BA831E2F0D
:10026E00E03019F0A12FDEDFF5CF18812396089527
:10027E00AA93EAB3E06FEABBD29AD09AD19ADA98EF
:10028E00D898D9987880E881E058E0936201E881A7
:10029E00E054E0936301A4E1B0E00E94760118D02F
:1002AE0017D016D0A0E287DF88EC90E00197F1F727
:1002BE00A8E295DFA4E093DFA5E891DFA6E08FDF4B
:1002CE00A7DF219608958BDFA3E0B0E00C947601B2
:1002DE00A0E371DF88EC90E00197F1F70895109696
:1002EE0039F080ED97E00197F1F7A8951197C9F7CE
:1002FE000895AC0FBD1F05900D928A95E1F70895F4
:00000001FF
