:0E0000000C9434000C9400000C9400000C943E
:10000E0000000C9400000C9400000C9400000C9462
:10001E0000000C9400000C9400000C9400000C9452
:10002E0000000C9400000C9400000C9400000C9442
:10003E0000000C9400000C9400000C9400000C9432
:10004E0000000C940000BF86DBCFE6EDFD87FFEFCE
:10005E003F065B4F666D7D077F6FF894EE27ECBB16
:10006E00F1E0FBBFEBBFE5BF8DE0A2E0BB27ED9358
:10007E008A95E9F780E094E0A0E6ED930197E9F721
:10008E00EFE5EDBFE4E0EEBFC0E6D1E00C94D000AA
:10009E000E940D02A49784E1A0E1B0E0E4E5F0E057
:1000AE000E9420020E94120200E010E020E030E0E8
:1000BE00AAA5BBA58CA59DA5E0E0F0E060E271E4E9
:1000CE000E946F010E942601AF0109B31127F801AA
:1000DE00AAE0B0E00E94D1018F01E0E0EABBEFE0C0
:1000EE00E1BB11230AF451C0D801EAE0F0E00E940E
:1000FE00F101EC8BFD8BD801EAE0F0E00E94E90102
:10010E00EC87FD87AC85BD854AD0EA8BFB8BAC8531
:10011E00BD854AD0EA87FB87AA85BB8540D0E88B90
:10012E00F98BAA85BB8540D0E887F987A885B98564
:10013E0036D0EE87FF87A885B98536D0EE83FF834C
:10014E00EE85FF8536D0EEE03BD0E889F98931D0D7
:10015E00EDE036D0EA89FB89DE015696AE0FBF1F61
:10016E00EC91E5BBEBE02CD0EC89FD8922D0E7E0E9
:10017E0027D02F5F3F4FE4E1F0E0E217F30721F4C1
:10018E00041B150B20E030E0ACCF0E941902AE9696
:10019E000895AAE9B9E989E99EE37ADFFFCFEAE09B
:1001AE00F0E00E94EE010895EAE0F0E00E94D60130
:1001BE000895DE019096AE0FBF1FEC91E5BB08953A
:1001CE00E2BBA5E0B0E00E94EF00EFE0E2BB0895D5
:1001DE00109639F080ED97E00197F1F7A8951197F9
:1001EE00C9F70895552342F4503811F4E0FF04C0C6
:1001FE003196691F791F6BF050E8572711F45F9302
:10020E0055C05F3F31F0660F000C57956795752FFF
:10021E0008955F9300200AF055C04EC050E8192E85
:10022E001522880F991F9527550F879550E8072E91
:10023E000522660F771F7527550F679508956894E9
:10024E0001C0E8945F93F2DF703818F07F3F08F436
:10025E002DC056E1571BAAF4519558300EF4593063
:10026E0030F0EFEFFFEF6FEF7FE777F91AC07727E8
:10027E005523B9F0EE0FFF1F661F771F5A95D1F762
:10028E0010C07727583028F0EF2FF62F672F5850D1
:10029E00F9CF552331F076956795F795E7955A95F1
:1002AE00D1F700200AF466D05F910895EE27FF275C
:1002BE00662777275F910895EFEFFFEF6FE77FEFE8
:1002CE005F910895EFEFFFEF6FE77FE75F9108957E
:1002DE005F93A4DF703851F3903841F301240894F2
:1002EE00791F23F41CF300203AF3ECCF0F921F93E7
:1002FE002F933F934F93112722279927689FA00191
:10030E008F9F302D410D591F6B9F300D411D591F71
:10031E008E9F27D0BF9F25D06A9F23D0BE9F1DD012
:10032E00AF9F1BD0AE9F110D291F391F491F591F9B
:10033E00E32FF42F652F522F4F913F912F911F9145
:10034E000F9066232AF0550FEE1FFF1F661F02C087
:10035E0073954BF247DF5F910895100D211D391FE4
:10036E0002C0200D311D491F591F0895F195E195C9
:10037E00F0400895F09560957095E195FF4F6F4FA1
:10038E007F4F0895FA9FF02DEB9FF00DEA9FE02D21
:10039E00F10D08952DD0F6DF0EF4E8DF0895002458
:1003AE00112490E1AA0FBB1F001C111C0E1A1F0A6C
:1003BE0018F40E0E1F1E01C0A1609A9599F7FD014B
:1003CE00D001089515D0EBDF0EF4D0DF0895E7DFEE
:1003DE00FD010895E894B7FF04C0A095B09511965D
:1003EE006894F7FDC3DFDBDFFD010EF4BFDF089578
:1003FE00E894F7FF02C0BADF6894B7FF06C0A09575
:10040E00B095119600F8039400FA08959A938A9382
:10041E00BA93AA9308955A934A933A932A931A93A6
:10042E000A9308955D814C813B812A81198108814F
:10043E000895AC0FBD1F05900D928A95E1F70895B2
:00000001FF
