:0E0000000C943A000C9400000C9400000C9438
:10000E0000000C9400000C9400000C9400000C9462
:10001E0000000C9400000C9400000C9400000C9452
:10002E0000000C9400000C9400000C9400000C9442
:10003E0000000C9400000C9400000C9400000C9432
:10004E0000000C9400001027E80364000A00010071
:10005E0000100001100001004F7574206F662072B1
:10006E00616E67650000F894EE27ECBBF1E0FBBF14
:10007E00EBBFE5BF8DE0A2E0BB27ED938A95E9F7D4
:10008E0080E094E0A0E6ED930197E9F7EFE5EDBF90
:10009E00E4E0EEBFC0E6D1E00C94C900BA93AA9397
:1000AE001A930A9300E010E0A4EFB1E00E948702D9
:1000BE00EC81F0E0E130A0E0FA0799F4EFEFEABB53
:1000CE0000E010E00E9459025CF4EFEFEBBB0E94DF
:1000DE005E02E0E0EBBB0E945E020F5F1F4FF2CFAD
:1000EE004DC0E230A0E0FA0799F4EFEFE7BB00E075
:1000FE0010E00E9459025CF4EFEFE8BB0E945E0232
:10010E00E0E0E8BB0E945E020F5F1F4FF2CF36C0E9
:10011E00E330A0E0FA0799F4EFEFE4BB00E010E063
:10012E000E9459025CF4EFEFE5BB0E945E02E0E034
:10013E00E5BB0E945E020F5F1F4FF2CF1FC0E4307F
:10014E00A0E0FA0799F4EFEFE1BB00E010E00E94A7
:10015E0059025CF4EFEFE2BB0E945E02E0E0E2BB0C
:10016E000E945E020F5F1F4FF2CF08C0E6E6F0E07E
:10017E00FA93EA9380E00E941B022296198108816D
:10018E0027960895E4E0F0E0FA93EA93E2E0EA932A
:10019E00A4EFB1E083DFFFCFAA935D9BFECFE88192
:1001AE00ECB921960895BA93AA93AA81F5DFA88196
:1001BE00B981ED91FD913196FE93EE9323960895BC
:1001CE00BA93AA9326970E94A10210E0AC85BD8532
:1001DE00E0E0F0E0ED93FC93EA89FB893196EA8B3F
:1001EE00FB8B3197E4912E2FE03009F415C1E12FEE
:1001FE00E03039F4253211F411E002C00E9462029F
:10020E000AC1E130A9F4253219F40E94620202C13A
:10021E0012E040E000E02D3211F401E0FCC02B3280
:10022E0011F44BE2F8C0203211F440E2F4C002C0E7
:10023E00E23039F450E013E0203311F40068EBC0E3
:10024E0003C0E33009F0E7C0203310F02A3308F082
:10025E0007C0AAE05A9F502DE22FE0535E0FDBC07D
:10026E00E22FE33649F40E946902E889F989A481F4
:10027E00AA930E946F02CEC0E33741F40E94690236
:10028E000E9475020E9440021E2F0AC0E03761F4E0
:10029E000E9469020E9475020E944C021E2F086085
:1002AE0002600F7730E034C0E43611F0E93611F415
:1002BE00046002C0E53731F4E4E5F0E0EE83FF833D
:1002CE0015E00CC0E83511F4086003C0E83709F0FA
:1002DE00A1C0EEE5F0E0EE83FF8314E002FF14C050
:1002EE000E9469020E947F02AB85AA233AF4EA8536
:1002FE00FB850E949502EA87FB874DE2403011F0A4
:10030E001F5F01C00B7F04C00E9469020E947F0222
:10031E0000FD11C0151778F407FF08C002FF04C0D6
:10032E000B7F242F115001C020E301C020E20E9458
:10033E0062025150EFCF312F01FF17C03030A1F0C4
:10034E0003FF06C0EE81FF812591EE83FF8305C07A
:10035E00AE81BF812D91AE83BF830E946202503069
:10036E0009F051503150EACF4BC020E3EE81FF81AE
:10037E000E949D02E887F987EE81FF813296EE8317
:10038E00FF83E885F985AA85BB85AE17BF0750F0B8
:10039E002F5FA885B985EA85FB85EA1BFB0BEA87EB
:1003AE00FB87EFCF2A3328F003FF02C0295F01C07D
:1003BE00295D04FD1AC0213320F4A885B985119753
:1003CE0009F409C0531710F000FF01C013C020E25A
:1003DE0007FF0BC020E3006102FF07C00B7F4A93AB
:1003EE000E946F02503009F051500E94620250304C
:1003FE0009F051503150A885B985129708F0B5CF44
:10040E0000FF08C0503031F05150E0E2EA930E94F4
:10041E006F02F8CF10E0E0CEAC85BD850E94990248
:10042E000E94A80264960895FF92F82E26971A93BA
:10043E000A93DE0114960E9491028D01E0E0EC8396
:10044E00ED83EE83EF83DE0118960E9491020E94E7
:10045E009902FA93EA931A930A93EAEDF0E0FA936B
:10046E00EA93DE011896ACDE198108812896FF907A
:10047E000895BA93AA93A991B991EE27FF276D918A
:10048E00662311F03196FBCF0895BA93AA93AA274B
:10049E00BB27E991F9910590002011F01196FBCF41
:1004AE00FD010895ED81FE810E171F070895AA81A3
:1004BE00BB810C9487022A93AD85BE85EF85F889A2
:1004CE0009950895E889F9893497E88BF98B089591
:1004DE00AD85BE85EF85F88909950895A889B989F6
:1004EE0014960E949902EE83FF83AE81BF81089518
:1004FE00A889B98914960E949902EA87FB87089504
:10050E00109639F080ED97E00197F1F7A8951197C5
:10051E00C9F708950024AF0DB01D0895F195E1952A
:10052E00F0400895ED91FC91119708950590F49186
:10053E00E02D08955A934A933A932A931A930A9365
:10054E0008955D814C813B812A811981088108952E
:00000001FF
