:100000000C942A000C9400000C9400000C94000046
:100010000C9400000C9400000C9400000C94000060
:100020000C9400000C9400000C9400000C94000050
:100030000C9400000C9400000C9400000C94000040
:100040000C9400000C9400000C9400000C94000030
:100050000C940000F894EE27ECBBF1E0FBBFEBBF83
:10006000E5BF8DE0A2E0BB27ED938A95E9F780E03C
:1000700094E0A0E6ED930197E9F7EFE5EDBFE4E04A
:10008000EEBFC0E6D1E00C9461001A930A9300E041
:1000900010E000E010E00430E0E01E077CF4EFEF39
:1000A000E8BBA4EFB1E00E946E00E0E0E8BBA4EF83
:1000B000B1E00E946E000F5F1F4FEDCF09911991C3
:1000C0000895E0E0EABBEBBBEFEFE7BBE0E0E8BBA5
:1000D000E4BBE5BBE1BBE2BBD8DFFFCF109639F054
:1000E00080ED97E00197F1F7A8951197C9F708956A
:00000001FF
