:060000000C9451000C9469
:1000060000000C9400000C9400000C9400000C946A
:1000160000000C9400000C9400000C9400000C945A
:1000260000000C9400000C9400000C9400000C944A
:1000360000000C94FC000C9400000C9400000C943E
:1000460000000C9400000C9400000C940000102793
:10005600E80364000A00010000100001100001001E
:100066000000414443202564203A202564206D5633
:10007600004144432025643A202564206D760072B1
:1000860065616479000080C0020004006600060015
:1000960060018500020086018C000000F894EE27BE
:1000A600ECBBF1E0FBBFEBBFE5BF8DE0A2E0BB27F9
:1000B600ED938A95E9F780E094E0A0E6ED93019749
:1000C600E9F7EEE8F0E085919591009761F0A5914A
:1000D600B59105901590BF01F00105900D9201971D
:1000E600E1F7FB01F0CFEFE5EDBFE4E0EEBFC0E6E0
:1000F600D1E00C945001BA93AA93E881E064E7B981
:100106008BE18A95F1F7EBEEE6B91BC11A930A93D8
:1001160000E010E00E94C7030D901C900E94CF03E0
:10012600D001AE1BBF0B8D01112322F4F8010E94F2
:1001360080058F01FE013296FA93EA93E8E6F0E035
:100146000E94D9030E94CF030E94E1030E94CF03BD
:10015600A5E0B0E00E9496050E94EA03E0E0F0E028
:1001660068EC72E40E941705D8010E9491050E946E
:10017600AD050E945C0509F008F41AC0FE0132962E
:10018600FA93EA93E7E7F0E00E94D9030E94C703D7
:100196000E949E050E94E103D6D0E0E0EA93A0E02B
:1001A600C5D0DE011296F0D0E0E0EA93A1E004C0EB
:1001B600CAD0E0E0EA93A0E0B9D0DE011296E4D01E
:1001C600F201A6E6B1E0EE0FFF1FEA0FFB1F0F01DB
:1001D6000E94C7030E949E05D001ED93FC93E09117
:1001E6007601F0917701F695E795ECBF09911991A3
:1001F60008950A921A92FA926A937A938A939A9334
:10020600AA93BA93EA93FA93EFB7EA930E94BF05CB
:1002160020E030E004B115B1A5E0A09FF001A19F58
:10022600F00D0E94EA03E0E0F0EC6FE774E40E9450
:100236001705A0E0B0E08AE794E40E94C9040E9492
:1002460062049F01F201A6E7B1E0EE0FFF1FEA0F7D
:10025600FB1F208331835ADFF20131962F01E8E03C
:10026600F0E0E415F50511F444245524A8EEB3E0B6
:100276000E942B04D2013FDF0E94C6052496E99115
:10028600EFBFF991E991B991A991999189917991E4
:100296006991F990199009901895E0E0EABBEBBBDB
:1002A600E8E0E7BBE0E0E8BBE4BBE5BBE1BBE2BB03
:1002B600EBE6E3BFE0E0E2BFE0E8ECBFE0E0E9BF89
:1002C600E0E4E7B9EBEAE6B9E0E0E0BFA0E16DD033
:1002D60078948B9AA0E6B1E057D0A8EBBBE00E94D9
:1002E6002B0431D0D20107DFFFCFFFCFAA93E5B3AE
:1002F600EF70AE2FE881E07FEA2BE5BB8DE08A95B3
:10030600F1F7AA9A8DE08A95F1F7AA988DE08A9579
:10031600F1F777C0AA93A881E9DFE881E295E8833F
:10032600A881E4DF85E88A95F1F76BC0AA93E88196
:10033600F0E0EA57FE4FE081A981AE0FEBDF79804E
:10034600688022960895A2E00E94F103ACE0E2DF05
:10035600A1E00E94F103E0E06E2E7E2E0895AA939E
:10036600A881AA3011F0791448F0E0E0EA9363948A
:10037600A62DDCDFA881AA3009F443C07394A89A9D
:10038600A881C8DFA8983DC0BA93AA931A93A981F9
:10039600BA81ED91A983BA831E2FE03019F0A12FFF
:1003A600DEDFF5CF188123960895AA93E4B3E06FB4
:1003B600E4BBA29AA09AA19AAA98A898A99898800C
:1003C600E881E058E0938801E881E054E0938901F0
:1003D600A4E1B0E00E942B040E94F7030E94F703F9
:1003E6000E94F703A0E282DF88EC90E00197F1F724
:1003F600A8E290DFA4E08EDFA5E88CDFA6E08ADF26
:10040600A2DF21960895BA93AA931A930A93AA8112
:10041600BB8112960E949E05309759F1AA81BB8135
:1004260014960E949E058F01309761F00230E0E03D
:100436001E0798F0F80131978F01AA81BB811496A7
:10044600ED93FC93AA81BB811296ED91FD913196B5
:10045600FE93EE933197AC81A083AA81BB810E9463
:100466009E05FF232AF0ED91FD913196FE93EE93C2
:1004760006C0AA81BB81EFEFFFEFED93FC931981D4
:10048600088125960895BA93AA9326970E94BD05DA
:1004960010E0AC85BD85E0E0F0E0ED93FC93EA89E1
:1004A600FB893196EA8BFB8B3197E4912E2FE03056
:1004B60009F415C1E12FE03039F4253211F411E0C9
:1004C60002C00E94FF030AC1E130A9F4253219F4E3
:1004D6000E94FF0302C112E040E000E02D3211F459
:1004E60001E0FCC02B3211F44BE2F8C0203211F4CB
:1004F60040E2F4C002C0E23039F450E013E02033A9
:1005060011F40068EBC003C0E33009F0E7C0203304
:1005160010F02A3308F007C0AAE05A9F502DE22FA8
:10052600E0535E0FDBC0E22FE33649F40E94060477
:10053600E889F989A481AA930E940C04CEC0E33706
:1005460041F40E9406040E9412040E94AE031E2F6C
:100556000AC0E03761F40E9406040E9412040E9459
:10056600BA031E2F086002600F7730E034C0E4360D
:1005760011F0E93611F4046002C0E53731F4E4E520
:10058600F0E0EE83FF8315E00CC0E83511F4086057
:1005960003C0E83709F0A1C0EEE5F0E0EE83FF8383
:1005A60014E002FF14C00E9406040E941C04AB85DE
:1005B600AA233AF4EA85FB850E948005EA87FB8731
:1005C6004DE2403011F01F5F01C00B7F04C00E9456
:1005D60006040E941C0400FD11C0151778F407FFDD
:1005E60008C002FF04C00B7F242F115001C020E376
:1005F60001C020E20E94FF035150EFCF312F01FFCF
:1006060017C03030A1F003FF06C0EE81FF812591AF
:10061600EE83FF8305C0AE81BF812D91AE83BF837C
:100626000E94FF03503009F051503150EACF4BC0C1
:1006360020E3EE81FF810E94A205E887F987EE811B
:10064600FF813296EE83FF83E885F985AA85BB850F
:10065600AE17BF0750F02F5FA885B985EA85FB85E1
:10066600EA1BFB0BEA87FB87EFCF2A3328F003FF51
:1006760002C0295F01C0295D04FD1AC0213320F4A0
:10068600A885B985119709F409C0531710F000FF22
:1006960001C013C020E207FF0BC020E3006102FF88
:1006A60007C00B7F4A930E940C04503009F051504A
:1006B6000E94FF03503009F051503150A885B9858A
:1006C600129708F0B5CF00FF08C0503031F05150F6
:1006D600E0E2EA930E940C04F8CF10E0E0CEAC858D
:1006E600BD850E949E050E94C40564960895FF92EA
:1006F600F82E26970E94BF050E942404309719F40D
:10070600EFEFFFEF23C0DE0116960E947C058D01F8
:100716000E942404EE83FF83E0E0E887E987DE0198
:100726001A960E947C050E949E05FA93EA931A93F4
:100736000A93E6E0F2E0FA93EA93DE011A96A3DE64
:100746009F01AE81BF81E0E0EC93F9010E94C605EE
:100756002A96FF900895BA93AA93A991B991EE2784
:10076600FF276D91662311F03196FBCF0895BA935A
:10077600AA93AA27BB27E991F9910590002011F0C9
:100786001196FBCFFD010895F201A6E7B1E0EE0F49
:10079600FF1FAE0FBF1F0895F201A6E6B1E0EE0FF0
:1007A600FF1FAE0FBF1F0E949E050895FA93EA939E
:1007B600F2010E948C050E94A605089566277727F8
:1007C6000E94A60588E00E947A032C960895662763
:1007D60077270E949B04DF01CB0108950E948D01BB
:1007E600A3E0B0E00C942B04A0E30E94790188EC0E
:1007F60090E00197F1F708952A93AD85BE85EF85C0
:10080600F88909950895E889F9893497E88BF98B71
:100816000895AD85BE85EF85F88909950895A8895F
:10082600B98914960E949E05EE83FF83AE81BF812F
:100836000895A889B98914960E949E05EA87FB87C0
:100846000895DE011C960E947C050E949E0508956F
:10085600109639F080ED97E00197F1F7A89511977A
:10086600C9F70895552342F4503811F4E0FF04C047
:100876003196691F791F6BF050E8572711F45F9383
:1008860073C05F3F31F0660F000C57956795752F63
:1008960008955F9300200AF073C06CC050E8192ECB
:1008A6001522880F991F9527550F879550E8072E13
:1008B6000522660F771F7527550F6795089568946B
:1008C60001C0E8945F93F2DF703818F07F3F08F4B8
:1008D6004BC056E1571BAAF4519558300EF45930C7
:1008E60030F0EFEFFFEF6FEF7FE777F91AC077276A
:1008F6005523B9F0EE0FFF1F661F771F5A95D1F7E4
:1009060010C07727583028F0EF2FF62F672F585052
:10091600F9CF552331F076956795F795E7955A9572
:10092600D1F700200AF4EDD05F910895689401C0D4
:10093600E894309760407040B1F0002426F07723A9
:1009460012F40094DED0172E7EE1112032F07A9553
:10095600EE0FFF1F661F111CF9CFEF2FF62F612D2B
:100966005F938ADF5F910895EE27FF276627772733
:100976005F910895EFEFFFEF6FE77FEF5F910895C7
:10098600EFEFFFEF6FE77FE75F9108955F9386DFF5
:10099600703851F3903841F301240894791F23F4F9
:1009A6001CF300203AF3ECCF0F921F932F933F9343
:1009B6004F93112722279927689FA0018F9F302DDB
:1009C600410D591F6B9F300D411D591F8E9F27D01A
:1009D600BF9F25D06A9F23D0BE9F1DD0AF9F1BD03F
:1009E600AE9F110D291F391F491F591FE32FF42FE1
:1009F600652F522F4F913F912F911F910F90662394
:100A06002AF0550FEE1FFF1F661F02C073954BF2AB
:100A160029DF5F910895100D211D391F02C0200D99
:100A2600311D491F591F08955F9338DF703821F42F
:100A360011200AF49FCFA4CF903809F495CF012452
:100A46000894970B1BF4D4F30020F3CF792F1F9350
:100A56002F933F934F93112411272227332744279F
:100A6600552790E2AE17BF078607410730F0AE1B49
:100A7600BF0B860B410B089401C08894551F221F9B
:100A8600331F111CAA1FBB1F881F441F9A9551F7BD
:100A9600F901612D4F913F912F911F91662332F0FD
:100AA600550FEE1FFF1F661F7A9543F2DBDE5F913F
:100AB600089599239AF0772342F0971748F029F47E
:100AC600AE17BF07860720F031F0989488940895F2
:100AD6009894089408951894889408957723C2F7F3
:100AE600971798F3A9F7EA17FB07680788F399F3AE
:100AF600ECCF0024AF0DB01D0895F195E195F040BF
:100B06000895F09560957095E195FF4F6F4F7F4F73
:100B160008956F2F660F660B762F08958B2F880F1B
:100B2600880B982F0895FA9FF02DEB9FF00DEA9F02
:100B3600E02DF10D0895ED91FC9111970895059022
:100B4600F491E02D08957A936A93FA93EA930895BF
:100B5600689401C0E89401D0ECDE182E862F612D32
:100B6600192E972F712D1B2EBF2FF12D1A2EAE2F5A
:100B7600E12D08955A934A933A932A931A930A9326
:100B860008955D814C813B812A81198108810895F0
:00000001FF
